{
	"VideoContract.sol": {
		"VideoBlockchainTracker": {
			"abi": [
				{
					"anonymous": false,
					"inputs": [
						{
							"indexed": true,
							"internalType": "address",
							"name": "uploader",
							"type": "address"
						},
						{
							"indexed": false,
							"internalType": "string",
							"name": "videoHash",
							"type": "string"
						},
						{
							"indexed": false,
							"internalType": "string",
							"name": "caption",
							"type": "string"
						},
						{
							"indexed": false,
							"internalType": "string",
							"name": "tag",
							"type": "string"
						},
						{
							"indexed": false,
							"internalType": "uint256",
							"name": "timestamp",
							"type": "uint256"
						}
					],
					"name": "VideoUploaded",
					"type": "event"
				},
				{
					"inputs": [
						{
							"internalType": "address",
							"name": "_uploader",
							"type": "address"
						}
					],
					"name": "getVideosByUploader",
					"outputs": [
						{
							"components": [
								{
									"internalType": "string",
									"name": "videoHash",
									"type": "string"
								},
								{
									"internalType": "string",
									"name": "caption",
									"type": "string"
								},
								{
									"internalType": "string",
									"name": "tag",
									"type": "string"
								},
								{
									"internalType": "address",
									"name": "uploader",
									"type": "address"
								},
								{
									"internalType": "uint256",
									"name": "timestamp",
									"type": "uint256"
								}
							],
							"internalType": "struct VideoBlockchainTracker.Video[]",
							"name": "",
							"type": "tuple[]"
						}
					],
					"stateMutability": "view",
					"type": "function"
				},
				{
					"inputs": [
						{
							"internalType": "string",
							"name": "_videoHash",
							"type": "string"
						},
						{
							"internalType": "string",
							"name": "_caption",
							"type": "string"
						},
						{
							"internalType": "string",
							"name": "_tag",
							"type": "string"
						}
					],
					"name": "uploadVideo",
					"outputs": [],
					"stateMutability": "nonpayable",
					"type": "function"
				},
				{
					"inputs": [
						{
							"internalType": "address",
							"name": "",
							"type": "address"
						},
						{
							"internalType": "uint256",
							"name": "",
							"type": "uint256"
						}
					],
					"name": "videos",
					"outputs": [
						{
							"internalType": "string",
							"name": "videoHash",
							"type": "string"
						},
						{
							"internalType": "string",
							"name": "caption",
							"type": "string"
						},
						{
							"internalType": "string",
							"name": "tag",
							"type": "string"
						},
						{
							"internalType": "address",
							"name": "uploader",
							"type": "address"
						},
						{
							"internalType": "uint256",
							"name": "timestamp",
							"type": "uint256"
						}
					],
					"stateMutability": "view",
					"type": "function"
				}
			],
			"devdoc": {
				"kind": "dev",
				"methods": {},
				"version": 1
			},
			"evm": {
				"assembly": "    /* \"VideoContract.sol\":67:1084  contract VideoBlockchainTracker {... */\n  mstore(0x40, 0x80)\n  callvalue\n  dup1\n  iszero\n  tag_1\n  jumpi\n  0x00\n  dup1\n  revert\ntag_1:\n  pop\n  dataSize(sub_0)\n  dup1\n  dataOffset(sub_0)\n  0x00\n  codecopy\n  0x00\n  return\nstop\n\nsub_0: assembly {\n        /* \"VideoContract.sol\":67:1084  contract VideoBlockchainTracker {... */\n      mstore(0x40, 0x80)\n      callvalue\n      dup1\n      iszero\n      tag_1\n      jumpi\n      0x00\n      dup1\n      revert\n    tag_1:\n      pop\n      jumpi(tag_2, lt(calldatasize, 0x04))\n      shr(0xe0, calldataload(0x00))\n      dup1\n      0x4875e9fd\n      eq\n      tag_3\n      jumpi\n      dup1\n      0xcec9c6cc\n      eq\n      tag_4\n      jumpi\n      dup1\n      0xffc6c29c\n      eq\n      tag_5\n      jumpi\n    tag_2:\n      0x00\n      dup1\n      revert\n        /* \"VideoContract.sol\":484:945  function uploadVideo(string memory _videoHash, string memory _caption, string memory _tag) public {... */\n    tag_3:\n      tag_6\n      0x04\n      dup1\n      calldatasize\n      sub\n      dup2\n      add\n      swap1\n      tag_7\n      swap2\n      swap1\n      tag_8\n      jump\t// in\n    tag_7:\n      tag_9\n      jump\t// in\n    tag_6:\n      stop\n        /* \"VideoContract.sol\":953:1081  function getVideosByUploader(address _uploader) public view returns (Video[] memory) {... */\n    tag_4:\n      tag_10\n      0x04\n      dup1\n      calldatasize\n      sub\n      dup2\n      add\n      swap1\n      tag_11\n      swap2\n      swap1\n      tag_12\n      jump\t// in\n    tag_11:\n      tag_13\n      jump\t// in\n    tag_10:\n      mload(0x40)\n      tag_14\n      swap2\n      swap1\n      tag_15\n      jump\t// in\n    tag_14:\n      mload(0x40)\n      dup1\n      swap2\n      sub\n      swap1\n      return\n        /* \"VideoContract.sol\":263:304  mapping(address => Video[]) public videos */\n    tag_5:\n      tag_16\n      0x04\n      dup1\n      calldatasize\n      sub\n      dup2\n      add\n      swap1\n      tag_17\n      swap2\n      swap1\n      tag_18\n      jump\t// in\n    tag_17:\n      tag_19\n      jump\t// in\n    tag_16:\n      mload(0x40)\n      tag_20\n      swap6\n      swap5\n      swap4\n      swap3\n      swap2\n      swap1\n      tag_21\n      jump\t// in\n    tag_20:\n      mload(0x40)\n      dup1\n      swap2\n      sub\n      swap1\n      return\n        /* \"VideoContract.sol\":484:945  function uploadVideo(string memory _videoHash, string memory _caption, string memory _tag) public {... */\n    tag_9:\n        /* \"VideoContract.sol\":593:614  Video memory newVideo */\n      0x00\n        /* \"VideoContract.sol\":617:803  Video({... */\n      mload(0x40)\n      dup1\n      0xa0\n      add\n      0x40\n      mstore\n      dup1\n        /* \"VideoContract.sol\":649:659  _videoHash */\n      dup6\n        /* \"VideoContract.sol\":617:803  Video({... */\n      dup2\n      mstore\n      0x20\n      add\n        /* \"VideoContract.sol\":683:691  _caption */\n      dup5\n        /* \"VideoContract.sol\":617:803  Video({... */\n      dup2\n      mstore\n      0x20\n      add\n        /* \"VideoContract.sol\":711:715  _tag */\n      dup4\n        /* \"VideoContract.sol\":617:803  Video({... */\n      dup2\n      mstore\n      0x20\n      add\n        /* \"VideoContract.sol\":740:750  msg.sender */\n      caller\n        /* \"VideoContract.sol\":617:803  Video({... */\n      0xffffffffffffffffffffffffffffffffffffffff\n      and\n      dup2\n      mstore\n      0x20\n      add\n        /* \"VideoContract.sol\":776:791  block.timestamp */\n      timestamp\n        /* \"VideoContract.sol\":617:803  Video({... */\n      dup2\n      mstore\n      pop\n        /* \"VideoContract.sol\":593:803  Video memory newVideo = Video({... */\n      swap1\n      pop\n        /* \"VideoContract.sol\":816:822  videos */\n      0x00\n        /* \"VideoContract.sol\":816:834  videos[msg.sender] */\n      dup1\n        /* \"VideoContract.sol\":823:833  msg.sender */\n      caller\n        /* \"VideoContract.sol\":816:834  videos[msg.sender] */\n      0xffffffffffffffffffffffffffffffffffffffff\n      and\n      0xffffffffffffffffffffffffffffffffffffffff\n      and\n      dup2\n      mstore\n      0x20\n      add\n      swap1\n      dup2\n      mstore\n      0x20\n      add\n      0x00\n      keccak256\n        /* \"VideoContract.sol\":840:848  newVideo */\n      dup2\n        /* \"VideoContract.sol\":816:849  videos[msg.sender].push(newVideo) */\n      swap1\n      dup1\n      0x01\n      dup2\n      sload\n      add\n      dup1\n      dup3\n      sstore\n      dup1\n      swap2\n      pop\n      pop\n      0x01\n      swap1\n      sub\n      swap1\n      0x00\n      mstore\n      keccak256(0x00, 0x20)\n      swap1\n      0x05\n      mul\n      add\n      0x00\n      swap1\n      swap2\n      swap1\n      swap2\n      swap1\n      swap2\n      pop\n      0x00\n      dup3\n      add\n      mload\n      dup2\n      0x00\n      add\n      swap1\n      dup1\n      mload\n      swap1\n      0x20\n      add\n      swap1\n      tag_24\n      swap3\n      swap2\n      swap1\n      tag_25\n      jump\t// in\n    tag_24:\n      pop\n      0x20\n      dup3\n      add\n      mload\n      dup2\n      0x01\n      add\n      swap1\n      dup1\n      mload\n      swap1\n      0x20\n      add\n      swap1\n      tag_26\n      swap3\n      swap2\n      swap1\n      tag_25\n      jump\t// in\n    tag_26:\n      pop\n      0x40\n      dup3\n      add\n      mload\n      dup2\n      0x02\n      add\n      swap1\n      dup1\n      mload\n      swap1\n      0x20\n      add\n      swap1\n      tag_27\n      swap3\n      swap2\n      swap1\n      tag_25\n      jump\t// in\n    tag_27:\n      pop\n      0x60\n      dup3\n      add\n      mload\n      dup2\n      0x03\n      add\n      exp(0x0100, 0x00)\n      dup2\n      sload\n      dup2\n      0xffffffffffffffffffffffffffffffffffffffff\n      mul\n      not\n      and\n      swap1\n      dup4\n      0xffffffffffffffffffffffffffffffffffffffff\n      and\n      mul\n      or\n      swap1\n      sstore\n      pop\n      0x80\n      dup3\n      add\n      mload\n      dup2\n      0x04\n      add\n      sstore\n      pop\n      pop\n        /* \"VideoContract.sol\":881:891  msg.sender */\n      caller\n        /* \"VideoContract.sol\":867:937  VideoUploaded(msg.sender, _videoHash, _caption, _tag, block.timestamp) */\n      0xffffffffffffffffffffffffffffffffffffffff\n      and\n      0xfa01791cf2ee2d721cb83fc66c41951350595af03c57078485bd85985928a49c\n        /* \"VideoContract.sol\":893:903  _videoHash */\n      dup6\n        /* \"VideoContract.sol\":905:913  _caption */\n      dup6\n        /* \"VideoContract.sol\":915:919  _tag */\n      dup6\n        /* \"VideoContract.sol\":921:936  block.timestamp */\n      timestamp\n        /* \"VideoContract.sol\":867:937  VideoUploaded(msg.sender, _videoHash, _caption, _tag, block.timestamp) */\n      mload(0x40)\n      tag_28\n      swap5\n      swap4\n      swap3\n      swap2\n      swap1\n      tag_29\n      jump\t// in\n    tag_28:\n      mload(0x40)\n      dup1\n      swap2\n      sub\n      swap1\n      log2\n        /* \"VideoContract.sol\":582:945  {... */\n      pop\n        /* \"VideoContract.sol\":484:945  function uploadVideo(string memory _videoHash, string memory _caption, string memory _tag) public {... */\n      pop\n      pop\n      pop\n      jump\t// out\n        /* \"VideoContract.sol\":953:1081  function getVideosByUploader(address _uploader) public view returns (Video[] memory) {... */\n    tag_13:\n        /* \"VideoContract.sol\":1022:1036  Video[] memory */\n      0x60\n        /* \"VideoContract.sol\":1056:1062  videos */\n      0x00\n        /* \"VideoContract.sol\":1056:1073  videos[_uploader] */\n      dup1\n        /* \"VideoContract.sol\":1063:1072  _uploader */\n      dup4\n        /* \"VideoContract.sol\":1056:1073  videos[_uploader] */\n      0xffffffffffffffffffffffffffffffffffffffff\n      and\n      0xffffffffffffffffffffffffffffffffffffffff\n      and\n      dup2\n      mstore\n      0x20\n      add\n      swap1\n      dup2\n      mstore\n      0x20\n      add\n      0x00\n      keccak256\n        /* \"VideoContract.sol\":1049:1073  return videos[_uploader] */\n      dup1\n      sload\n      dup1\n      0x20\n      mul\n      0x20\n      add\n      mload(0x40)\n      swap1\n      dup2\n      add\n      0x40\n      mstore\n      dup1\n      swap3\n      swap2\n      swap1\n      dup2\n      dup2\n      mstore\n      0x20\n      add\n      0x00\n      swap1\n    tag_31:\n      dup3\n      dup3\n      lt\n      iszero\n      tag_32\n      jumpi\n      dup4\n      dup3\n      swap1\n      0x00\n      mstore\n      keccak256(0x00, 0x20)\n      swap1\n      0x05\n      mul\n      add\n      mload(0x40)\n      dup1\n      0xa0\n      add\n      0x40\n      mstore\n      swap1\n      dup2\n      0x00\n      dup3\n      add\n      dup1\n      sload\n      tag_34\n      swap1\n      tag_35\n      jump\t// in\n    tag_34:\n      dup1\n      0x1f\n      add\n      0x20\n      dup1\n      swap2\n      div\n      mul\n      0x20\n      add\n      mload(0x40)\n      swap1\n      dup2\n      add\n      0x40\n      mstore\n      dup1\n      swap3\n      swap2\n      swap1\n      dup2\n      dup2\n      mstore\n      0x20\n      add\n      dup3\n      dup1\n      sload\n      tag_36\n      swap1\n      tag_35\n      jump\t// in\n    tag_36:\n      dup1\n      iszero\n      tag_37\n      jumpi\n      dup1\n      0x1f\n      lt\n      tag_38\n      jumpi\n      0x0100\n      dup1\n      dup4\n      sload\n      div\n      mul\n      dup4\n      mstore\n      swap2\n      0x20\n      add\n      swap2\n      jump(tag_37)\n    tag_38:\n      dup3\n      add\n      swap2\n      swap1\n      0x00\n      mstore\n      keccak256(0x00, 0x20)\n      swap1\n    tag_39:\n      dup2\n      sload\n      dup2\n      mstore\n      swap1\n      0x01\n      add\n      swap1\n      0x20\n      add\n      dup1\n      dup4\n      gt\n      tag_39\n      jumpi\n      dup3\n      swap1\n      sub\n      0x1f\n      and\n      dup3\n      add\n      swap2\n    tag_37:\n      pop\n      pop\n      pop\n      pop\n      pop\n      dup2\n      mstore\n      0x20\n      add\n      0x01\n      dup3\n      add\n      dup1\n      sload\n      tag_40\n      swap1\n      tag_35\n      jump\t// in\n    tag_40:\n      dup1\n      0x1f\n      add\n      0x20\n      dup1\n      swap2\n      div\n      mul\n      0x20\n      add\n      mload(0x40)\n      swap1\n      dup2\n      add\n      0x40\n      mstore\n      dup1\n      swap3\n      swap2\n      swap1\n      dup2\n      dup2\n      mstore\n      0x20\n      add\n      dup3\n      dup1\n      sload\n      tag_41\n      swap1\n      tag_35\n      jump\t// in\n    tag_41:\n      dup1\n      iszero\n      tag_42\n      jumpi\n      dup1\n      0x1f\n      lt\n      tag_43\n      jumpi\n      0x0100\n      dup1\n      dup4\n      sload\n      div\n      mul\n      dup4\n      mstore\n      swap2\n      0x20\n      add\n      swap2\n      jump(tag_42)\n    tag_43:\n      dup3\n      add\n      swap2\n      swap1\n      0x00\n      mstore\n      keccak256(0x00, 0x20)\n      swap1\n    tag_44:\n      dup2\n      sload\n      dup2\n      mstore\n      swap1\n      0x01\n      add\n      swap1\n      0x20\n      add\n      dup1\n      dup4\n      gt\n      tag_44\n      jumpi\n      dup3\n      swap1\n      sub\n      0x1f\n      and\n      dup3\n      add\n      swap2\n    tag_42:\n      pop\n      pop\n      pop\n      pop\n      pop\n      dup2\n      mstore\n      0x20\n      add\n      0x02\n      dup3\n      add\n      dup1\n      sload\n      tag_45\n      swap1\n      tag_35\n      jump\t// in\n    tag_45:\n      dup1\n      0x1f\n      add\n      0x20\n      dup1\n      swap2\n      div\n      mul\n      0x20\n      add\n      mload(0x40)\n      swap1\n      dup2\n      add\n      0x40\n      mstore\n      dup1\n      swap3\n      swap2\n      swap1\n      dup2\n      dup2\n      mstore\n      0x20\n      add\n      dup3\n      dup1\n      sload\n      tag_46\n      swap1\n      tag_35\n      jump\t// in\n    tag_46:\n      dup1\n      iszero\n      tag_47\n      jumpi\n      dup1\n      0x1f\n      lt\n      tag_48\n      jumpi\n      0x0100\n      dup1\n      dup4\n      sload\n      div\n      mul\n      dup4\n      mstore\n      swap2\n      0x20\n      add\n      swap2\n      jump(tag_47)\n    tag_48:\n      dup3\n      add\n      swap2\n      swap1\n      0x00\n      mstore\n      keccak256(0x00, 0x20)\n      swap1\n    tag_49:\n      dup2\n      sload\n      dup2\n      mstore\n      swap1\n      0x01\n      add\n      swap1\n      0x20\n      add\n      dup1\n      dup4\n      gt\n      tag_49\n      jumpi\n      dup3\n      swap1\n      sub\n      0x1f\n      and\n      dup3\n      add\n      swap2\n    tag_47:\n      pop\n      pop\n      pop\n      pop\n      pop\n      dup2\n      mstore\n      0x20\n      add\n      0x03\n      dup3\n      add\n      0x00\n      swap1\n      sload\n      swap1\n      0x0100\n      exp\n      swap1\n      div\n      0xffffffffffffffffffffffffffffffffffffffff\n      and\n      0xffffffffffffffffffffffffffffffffffffffff\n      and\n      0xffffffffffffffffffffffffffffffffffffffff\n      and\n      dup2\n      mstore\n      0x20\n      add\n      0x04\n      dup3\n      add\n      sload\n      dup2\n      mstore\n      pop\n      pop\n      dup2\n      mstore\n      0x20\n      add\n      swap1\n      0x01\n      add\n      swap1\n      jump(tag_31)\n    tag_32:\n      pop\n      pop\n      pop\n      pop\n      swap1\n      pop\n        /* \"VideoContract.sol\":953:1081  function getVideosByUploader(address _uploader) public view returns (Video[] memory) {... */\n      swap2\n      swap1\n      pop\n      jump\t// out\n        /* \"VideoContract.sol\":263:304  mapping(address => Video[]) public videos */\n    tag_19:\n      mstore(0x20, 0x00)\n      dup2\n      0x00\n      mstore\n      keccak256(0x00, 0x40)\n      dup2\n      dup2\n      sload\n      dup2\n      lt\n      tag_50\n      jumpi\n      0x00\n      dup1\n      revert\n    tag_50:\n      swap1\n      0x00\n      mstore\n      keccak256(0x00, 0x20)\n      swap1\n      0x05\n      mul\n      add\n      0x00\n      swap2\n      pop\n      swap2\n      pop\n      pop\n      dup1\n      0x00\n      add\n      dup1\n      sload\n      tag_52\n      swap1\n      tag_35\n      jump\t// in\n    tag_52:\n      dup1\n      0x1f\n      add\n      0x20\n      dup1\n      swap2\n      div\n      mul\n      0x20\n      add\n      mload(0x40)\n      swap1\n      dup2\n      add\n      0x40\n      mstore\n      dup1\n      swap3\n      swap2\n      swap1\n      dup2\n      dup2\n      mstore\n      0x20\n      add\n      dup3\n      dup1\n      sload\n      tag_53\n      swap1\n      tag_35\n      jump\t// in\n    tag_53:\n      dup1\n      iszero\n      tag_54\n      jumpi\n      dup1\n      0x1f\n      lt\n      tag_55\n      jumpi\n      0x0100\n      dup1\n      dup4\n      sload\n      div\n      mul\n      dup4\n      mstore\n      swap2\n      0x20\n      add\n      swap2\n      jump(tag_54)\n    tag_55:\n      dup3\n      add\n      swap2\n      swap1\n      0x00\n      mstore\n      keccak256(0x00, 0x20)\n      swap1\n    tag_56:\n      dup2\n      sload\n      dup2\n      mstore\n      swap1\n      0x01\n      add\n      swap1\n      0x20\n      add\n      dup1\n      dup4\n      gt\n      tag_56\n      jumpi\n      dup3\n      swap1\n      sub\n      0x1f\n      and\n      dup3\n      add\n      swap2\n    tag_54:\n      pop\n      pop\n      pop\n      pop\n      pop\n      swap1\n      dup1\n      0x01\n      add\n      dup1\n      sload\n      tag_57\n      swap1\n      tag_35\n      jump\t// in\n    tag_57:\n      dup1\n      0x1f\n      add\n      0x20\n      dup1\n      swap2\n      div\n      mul\n      0x20\n      add\n      mload(0x40)\n      swap1\n      dup2\n      add\n      0x40\n      mstore\n      dup1\n      swap3\n      swap2\n      swap1\n      dup2\n      dup2\n      mstore\n      0x20\n      add\n      dup3\n      dup1\n      sload\n      tag_58\n      swap1\n      tag_35\n      jump\t// in\n    tag_58:\n      dup1\n      iszero\n      tag_59\n      jumpi\n      dup1\n      0x1f\n      lt\n      tag_60\n      jumpi\n      0x0100\n      dup1\n      dup4\n      sload\n      div\n      mul\n      dup4\n      mstore\n      swap2\n      0x20\n      add\n      swap2\n      jump(tag_59)\n    tag_60:\n      dup3\n      add\n      swap2\n      swap1\n      0x00\n      mstore\n      keccak256(0x00, 0x20)\n      swap1\n    tag_61:\n      dup2\n      sload\n      dup2\n      mstore\n      swap1\n      0x01\n      add\n      swap1\n      0x20\n      add\n      dup1\n      dup4\n      gt\n      tag_61\n      jumpi\n      dup3\n      swap1\n      sub\n      0x1f\n      and\n      dup3\n      add\n      swap2\n    tag_59:\n      pop\n      pop\n      pop\n      pop\n      pop\n      swap1\n      dup1\n      0x02\n      add\n      dup1\n      sload\n      tag_62\n      swap1\n      tag_35\n      jump\t// in\n    tag_62:\n      dup1\n      0x1f\n      add\n      0x20\n      dup1\n      swap2\n      div\n      mul\n      0x20\n      add\n      mload(0x40)\n      swap1\n      dup2\n      add\n      0x40\n      mstore\n      dup1\n      swap3\n      swap2\n      swap1\n      dup2\n      dup2\n      mstore\n      0x20\n      add\n      dup3\n      dup1\n      sload\n      tag_63\n      swap1\n      tag_35\n      jump\t// in\n    tag_63:\n      dup1\n      iszero\n      tag_64\n      jumpi\n      dup1\n      0x1f\n      lt\n      tag_65\n      jumpi\n      0x0100\n      dup1\n      dup4\n      sload\n      div\n      mul\n      dup4\n      mstore\n      swap2\n      0x20\n      add\n      swap2\n      jump(tag_64)\n    tag_65:\n      dup3\n      add\n      swap2\n      swap1\n      0x00\n      mstore\n      keccak256(0x00, 0x20)\n      swap1\n    tag_66:\n      dup2\n      sload\n      dup2\n      mstore\n      swap1\n      0x01\n      add\n      swap1\n      0x20\n      add\n      dup1\n      dup4\n      gt\n      tag_66\n      jumpi\n      dup3\n      swap1\n      sub\n      0x1f\n      and\n      dup3\n      add\n      swap2\n    tag_64:\n      pop\n      pop\n      pop\n      pop\n      pop\n      swap1\n      dup1\n      0x03\n      add\n      0x00\n      swap1\n      sload\n      swap1\n      0x0100\n      exp\n      swap1\n      div\n      0xffffffffffffffffffffffffffffffffffffffff\n      and\n      swap1\n      dup1\n      0x04\n      add\n      sload\n      swap1\n      pop\n      dup6\n      jump\t// out\n    tag_25:\n      dup3\n      dup1\n      sload\n      tag_67\n      swap1\n      tag_35\n      jump\t// in\n    tag_67:\n      swap1\n      0x00\n      mstore\n      keccak256(0x00, 0x20)\n      swap1\n      0x1f\n      add\n      0x20\n      swap1\n      div\n      dup2\n      add\n      swap3\n      dup3\n      tag_69\n      jumpi\n      0x00\n      dup6\n      sstore\n      jump(tag_68)\n    tag_69:\n      dup3\n      0x1f\n      lt\n      tag_70\n      jumpi\n      dup1\n      mload\n      not(0xff)\n      and\n      dup4\n      dup1\n      add\n      or\n      dup6\n      sstore\n      jump(tag_68)\n    tag_70:\n      dup3\n      dup1\n      add\n      0x01\n      add\n      dup6\n      sstore\n      dup3\n      iszero\n      tag_68\n      jumpi\n      swap2\n      dup3\n      add\n    tag_71:\n      dup3\n      dup2\n      gt\n      iszero\n      tag_72\n      jumpi\n      dup3\n      mload\n      dup3\n      sstore\n      swap2\n      0x20\n      add\n      swap2\n      swap1\n      0x01\n      add\n      swap1\n      jump(tag_71)\n    tag_72:\n    tag_68:\n      pop\n      swap1\n      pop\n      tag_73\n      swap2\n      swap1\n      tag_74\n      jump\t// in\n    tag_73:\n      pop\n      swap1\n      jump\t// out\n    tag_74:\n    tag_75:\n      dup1\n      dup3\n      gt\n      iszero\n      tag_76\n      jumpi\n      0x00\n      dup2\n      0x00\n      swap1\n      sstore\n      pop\n      0x01\n      add\n      jump(tag_75)\n    tag_76:\n      pop\n      swap1\n      jump\t// out\n        /* \"#utility.yul\":7:82   */\n    tag_77:\n        /* \"#utility.yul\":40:46   */\n      0x00\n        /* \"#utility.yul\":73:75   */\n      0x40\n        /* \"#utility.yul\":67:76   */\n      mload\n        /* \"#utility.yul\":57:76   */\n      swap1\n      pop\n        /* \"#utility.yul\":7:82   */\n      swap1\n      jump\t// out\n        /* \"#utility.yul\":88:205   */\n    tag_78:\n        /* \"#utility.yul\":197:198   */\n      0x00\n        /* \"#utility.yul\":194:195   */\n      dup1\n        /* \"#utility.yul\":187:199   */\n      revert\n        /* \"#utility.yul\":211:328   */\n    tag_79:\n        /* \"#utility.yul\":320:321   */\n      0x00\n        /* \"#utility.yul\":317:318   */\n      dup1\n        /* \"#utility.yul\":310:322   */\n      revert\n        /* \"#utility.yul\":334:451   */\n    tag_80:\n        /* \"#utility.yul\":443:444   */\n      0x00\n        /* \"#utility.yul\":440:441   */\n      dup1\n        /* \"#utility.yul\":433:445   */\n      revert\n        /* \"#utility.yul\":457:574   */\n    tag_81:\n        /* \"#utility.yul\":566:567   */\n      0x00\n        /* \"#utility.yul\":563:564   */\n      dup1\n        /* \"#utility.yul\":556:568   */\n      revert\n        /* \"#utility.yul\":580:682   */\n    tag_82:\n        /* \"#utility.yul\":621:627   */\n      0x00\n        /* \"#utility.yul\":672:674   */\n      0x1f\n        /* \"#utility.yul\":668:675   */\n      not\n        /* \"#utility.yul\":663:665   */\n      0x1f\n        /* \"#utility.yul\":656:661   */\n      dup4\n        /* \"#utility.yul\":652:666   */\n      add\n        /* \"#utility.yul\":648:676   */\n      and\n        /* \"#utility.yul\":638:676   */\n      swap1\n      pop\n        /* \"#utility.yul\":580:682   */\n      swap2\n      swap1\n      pop\n      jump\t// out\n        /* \"#utility.yul\":688:868   */\n    tag_83:\n        /* \"#utility.yul\":736:813   */\n      0x4e487b7100000000000000000000000000000000000000000000000000000000\n        /* \"#utility.yul\":733:734   */\n      0x00\n        /* \"#utility.yul\":726:814   */\n      mstore\n        /* \"#utility.yul\":833:837   */\n      0x41\n        /* \"#utility.yul\":830:831   */\n      0x04\n        /* \"#utility.yul\":823:838   */\n      mstore\n        /* \"#utility.yul\":857:861   */\n      0x24\n        /* \"#utility.yul\":854:855   */\n      0x00\n        /* \"#utility.yul\":847:862   */\n      revert\n        /* \"#utility.yul\":874:1155   */\n    tag_84:\n        /* \"#utility.yul\":957:984   */\n      tag_124\n        /* \"#utility.yul\":979:983   */\n      dup3\n        /* \"#utility.yul\":957:984   */\n      tag_82\n      jump\t// in\n    tag_124:\n        /* \"#utility.yul\":949:955   */\n      dup2\n        /* \"#utility.yul\":945:985   */\n      add\n        /* \"#utility.yul\":1087:1093   */\n      dup2\n        /* \"#utility.yul\":1075:1085   */\n      dup2\n        /* \"#utility.yul\":1072:1094   */\n      lt\n        /* \"#utility.yul\":1051:1069   */\n      0xffffffffffffffff\n        /* \"#utility.yul\":1039:1049   */\n      dup3\n        /* \"#utility.yul\":1036:1070   */\n      gt\n        /* \"#utility.yul\":1033:1095   */\n      or\n        /* \"#utility.yul\":1030:1118   */\n      iszero\n      tag_125\n      jumpi\n        /* \"#utility.yul\":1098:1116   */\n      tag_126\n      tag_83\n      jump\t// in\n    tag_126:\n        /* \"#utility.yul\":1030:1118   */\n    tag_125:\n        /* \"#utility.yul\":1138:1148   */\n      dup1\n        /* \"#utility.yul\":1134:1136   */\n      0x40\n        /* \"#utility.yul\":1127:1149   */\n      mstore\n        /* \"#utility.yul\":917:1155   */\n      pop\n        /* \"#utility.yul\":874:1155   */\n      pop\n      pop\n      jump\t// out\n        /* \"#utility.yul\":1161:1290   */\n    tag_85:\n        /* \"#utility.yul\":1195:1201   */\n      0x00\n        /* \"#utility.yul\":1222:1242   */\n      tag_128\n      tag_77\n      jump\t// in\n    tag_128:\n        /* \"#utility.yul\":1212:1242   */\n      swap1\n      pop\n        /* \"#utility.yul\":1251:1284   */\n      tag_129\n        /* \"#utility.yul\":1279:1283   */\n      dup3\n        /* \"#utility.yul\":1271:1277   */\n      dup3\n        /* \"#utility.yul\":1251:1284   */\n      tag_84\n      jump\t// in\n    tag_129:\n        /* \"#utility.yul\":1161:1290   */\n      swap2\n      swap1\n      pop\n      jump\t// out\n        /* \"#utility.yul\":1296:1604   */\n    tag_86:\n        /* \"#utility.yul\":1358:1362   */\n      0x00\n        /* \"#utility.yul\":1448:1466   */\n      0xffffffffffffffff\n        /* \"#utility.yul\":1440:1446   */\n      dup3\n        /* \"#utility.yul\":1437:1467   */\n      gt\n        /* \"#utility.yul\":1434:1490   */\n      iszero\n      tag_131\n      jumpi\n        /* \"#utility.yul\":1470:1488   */\n      tag_132\n      tag_83\n      jump\t// in\n    tag_132:\n        /* \"#utility.yul\":1434:1490   */\n    tag_131:\n        /* \"#utility.yul\":1508:1537   */\n      tag_133\n        /* \"#utility.yul\":1530:1536   */\n      dup3\n        /* \"#utility.yul\":1508:1537   */\n      tag_82\n      jump\t// in\n    tag_133:\n        /* \"#utility.yul\":1500:1537   */\n      swap1\n      pop\n        /* \"#utility.yul\":1592:1596   */\n      0x20\n        /* \"#utility.yul\":1586:1590   */\n      dup2\n        /* \"#utility.yul\":1582:1597   */\n      add\n        /* \"#utility.yul\":1574:1597   */\n      swap1\n      pop\n        /* \"#utility.yul\":1296:1604   */\n      swap2\n      swap1\n      pop\n      jump\t// out\n        /* \"#utility.yul\":1610:1764   */\n    tag_87:\n        /* \"#utility.yul\":1694:1700   */\n      dup3\n        /* \"#utility.yul\":1689:1692   */\n      dup2\n        /* \"#utility.yul\":1684:1687   */\n      dup4\n        /* \"#utility.yul\":1671:1701   */\n      calldatacopy\n        /* \"#utility.yul\":1756:1757   */\n      0x00\n        /* \"#utility.yul\":1747:1753   */\n      dup4\n        /* \"#utility.yul\":1742:1745   */\n      dup4\n        /* \"#utility.yul\":1738:1754   */\n      add\n        /* \"#utility.yul\":1731:1758   */\n      mstore\n        /* \"#utility.yul\":1610:1764   */\n      pop\n      pop\n      pop\n      jump\t// out\n        /* \"#utility.yul\":1770:2182   */\n    tag_88:\n        /* \"#utility.yul\":1848:1853   */\n      0x00\n        /* \"#utility.yul\":1873:1939   */\n      tag_136\n        /* \"#utility.yul\":1889:1938   */\n      tag_137\n        /* \"#utility.yul\":1931:1937   */\n      dup5\n        /* \"#utility.yul\":1889:1938   */\n      tag_86\n      jump\t// in\n    tag_137:\n        /* \"#utility.yul\":1873:1939   */\n      tag_85\n      jump\t// in\n    tag_136:\n        /* \"#utility.yul\":1864:1939   */\n      swap1\n      pop\n        /* \"#utility.yul\":1962:1968   */\n      dup3\n        /* \"#utility.yul\":1955:1960   */\n      dup2\n        /* \"#utility.yul\":1948:1969   */\n      mstore\n        /* \"#utility.yul\":2000:2004   */\n      0x20\n        /* \"#utility.yul\":1993:1998   */\n      dup2\n        /* \"#utility.yul\":1989:2005   */\n      add\n        /* \"#utility.yul\":2038:2041   */\n      dup5\n        /* \"#utility.yul\":2029:2035   */\n      dup5\n        /* \"#utility.yul\":2024:2027   */\n      dup5\n        /* \"#utility.yul\":2020:2036   */\n      add\n        /* \"#utility.yul\":2017:2042   */\n      gt\n        /* \"#utility.yul\":2014:2126   */\n      iszero\n      tag_138\n      jumpi\n        /* \"#utility.yul\":2045:2124   */\n      tag_139\n      tag_81\n      jump\t// in\n    tag_139:\n        /* \"#utility.yul\":2014:2126   */\n    tag_138:\n        /* \"#utility.yul\":2135:2176   */\n      tag_140\n        /* \"#utility.yul\":2169:2175   */\n      dup5\n        /* \"#utility.yul\":2164:2167   */\n      dup3\n        /* \"#utility.yul\":2159:2162   */\n      dup6\n        /* \"#utility.yul\":2135:2176   */\n      tag_87\n      jump\t// in\n    tag_140:\n        /* \"#utility.yul\":1854:2182   */\n      pop\n        /* \"#utility.yul\":1770:2182   */\n      swap4\n      swap3\n      pop\n      pop\n      pop\n      jump\t// out\n        /* \"#utility.yul\":2202:2542   */\n    tag_89:\n        /* \"#utility.yul\":2258:2263   */\n      0x00\n        /* \"#utility.yul\":2307:2310   */\n      dup3\n        /* \"#utility.yul\":2300:2304   */\n      0x1f\n        /* \"#utility.yul\":2292:2298   */\n      dup4\n        /* \"#utility.yul\":2288:2305   */\n      add\n        /* \"#utility.yul\":2284:2311   */\n      slt\n        /* \"#utility.yul\":2274:2396   */\n      tag_142\n      jumpi\n        /* \"#utility.yul\":2315:2394   */\n      tag_143\n      tag_80\n      jump\t// in\n    tag_143:\n        /* \"#utility.yul\":2274:2396   */\n    tag_142:\n        /* \"#utility.yul\":2432:2438   */\n      dup2\n        /* \"#utility.yul\":2419:2439   */\n      calldataload\n        /* \"#utility.yul\":2457:2536   */\n      tag_144\n        /* \"#utility.yul\":2532:2535   */\n      dup5\n        /* \"#utility.yul\":2524:2530   */\n      dup3\n        /* \"#utility.yul\":2517:2521   */\n      0x20\n        /* \"#utility.yul\":2509:2515   */\n      dup7\n        /* \"#utility.yul\":2505:2522   */\n      add\n        /* \"#utility.yul\":2457:2536   */\n      tag_88\n      jump\t// in\n    tag_144:\n        /* \"#utility.yul\":2448:2536   */\n      swap2\n      pop\n        /* \"#utility.yul\":2264:2542   */\n      pop\n        /* \"#utility.yul\":2202:2542   */\n      swap3\n      swap2\n      pop\n      pop\n      jump\t// out\n        /* \"#utility.yul\":2548:3707   */\n    tag_8:\n        /* \"#utility.yul\":2655:2661   */\n      0x00\n        /* \"#utility.yul\":2663:2669   */\n      dup1\n        /* \"#utility.yul\":2671:2677   */\n      0x00\n        /* \"#utility.yul\":2720:2722   */\n      0x60\n        /* \"#utility.yul\":2708:2717   */\n      dup5\n        /* \"#utility.yul\":2699:2706   */\n      dup7\n        /* \"#utility.yul\":2695:2718   */\n      sub\n        /* \"#utility.yul\":2691:2723   */\n      slt\n        /* \"#utility.yul\":2688:2807   */\n      iszero\n      tag_146\n      jumpi\n        /* \"#utility.yul\":2726:2805   */\n      tag_147\n      tag_78\n      jump\t// in\n    tag_147:\n        /* \"#utility.yul\":2688:2807   */\n    tag_146:\n        /* \"#utility.yul\":2874:2875   */\n      0x00\n        /* \"#utility.yul\":2863:2872   */\n      dup5\n        /* \"#utility.yul\":2859:2876   */\n      add\n        /* \"#utility.yul\":2846:2877   */\n      calldataload\n        /* \"#utility.yul\":2904:2922   */\n      0xffffffffffffffff\n        /* \"#utility.yul\":2896:2902   */\n      dup2\n        /* \"#utility.yul\":2893:2923   */\n      gt\n        /* \"#utility.yul\":2890:3007   */\n      iszero\n      tag_148\n      jumpi\n        /* \"#utility.yul\":2926:3005   */\n      tag_149\n      tag_79\n      jump\t// in\n    tag_149:\n        /* \"#utility.yul\":2890:3007   */\n    tag_148:\n        /* \"#utility.yul\":3031:3094   */\n      tag_150\n        /* \"#utility.yul\":3086:3093   */\n      dup7\n        /* \"#utility.yul\":3077:3083   */\n      dup3\n        /* \"#utility.yul\":3066:3075   */\n      dup8\n        /* \"#utility.yul\":3062:3084   */\n      add\n        /* \"#utility.yul\":3031:3094   */\n      tag_89\n      jump\t// in\n    tag_150:\n        /* \"#utility.yul\":3021:3094   */\n      swap4\n      pop\n        /* \"#utility.yul\":2817:3104   */\n      pop\n        /* \"#utility.yul\":3171:3173   */\n      0x20\n        /* \"#utility.yul\":3160:3169   */\n      dup5\n        /* \"#utility.yul\":3156:3174   */\n      add\n        /* \"#utility.yul\":3143:3175   */\n      calldataload\n        /* \"#utility.yul\":3202:3220   */\n      0xffffffffffffffff\n        /* \"#utility.yul\":3194:3200   */\n      dup2\n        /* \"#utility.yul\":3191:3221   */\n      gt\n        /* \"#utility.yul\":3188:3305   */\n      iszero\n      tag_151\n      jumpi\n        /* \"#utility.yul\":3224:3303   */\n      tag_152\n      tag_79\n      jump\t// in\n    tag_152:\n        /* \"#utility.yul\":3188:3305   */\n    tag_151:\n        /* \"#utility.yul\":3329:3392   */\n      tag_153\n        /* \"#utility.yul\":3384:3391   */\n      dup7\n        /* \"#utility.yul\":3375:3381   */\n      dup3\n        /* \"#utility.yul\":3364:3373   */\n      dup8\n        /* \"#utility.yul\":3360:3382   */\n      add\n        /* \"#utility.yul\":3329:3392   */\n      tag_89\n      jump\t// in\n    tag_153:\n        /* \"#utility.yul\":3319:3392   */\n      swap3\n      pop\n        /* \"#utility.yul\":3114:3402   */\n      pop\n        /* \"#utility.yul\":3469:3471   */\n      0x40\n        /* \"#utility.yul\":3458:3467   */\n      dup5\n        /* \"#utility.yul\":3454:3472   */\n      add\n        /* \"#utility.yul\":3441:3473   */\n      calldataload\n        /* \"#utility.yul\":3500:3518   */\n      0xffffffffffffffff\n        /* \"#utility.yul\":3492:3498   */\n      dup2\n        /* \"#utility.yul\":3489:3519   */\n      gt\n        /* \"#utility.yul\":3486:3603   */\n      iszero\n      tag_154\n      jumpi\n        /* \"#utility.yul\":3522:3601   */\n      tag_155\n      tag_79\n      jump\t// in\n    tag_155:\n        /* \"#utility.yul\":3486:3603   */\n    tag_154:\n        /* \"#utility.yul\":3627:3690   */\n      tag_156\n        /* \"#utility.yul\":3682:3689   */\n      dup7\n        /* \"#utility.yul\":3673:3679   */\n      dup3\n        /* \"#utility.yul\":3662:3671   */\n      dup8\n        /* \"#utility.yul\":3658:3680   */\n      add\n        /* \"#utility.yul\":3627:3690   */\n      tag_89\n      jump\t// in\n    tag_156:\n        /* \"#utility.yul\":3617:3690   */\n      swap2\n      pop\n        /* \"#utility.yul\":3412:3700   */\n      pop\n        /* \"#utility.yul\":2548:3707   */\n      swap3\n      pop\n      swap3\n      pop\n      swap3\n      jump\t// out\n        /* \"#utility.yul\":3713:3839   */\n    tag_90:\n        /* \"#utility.yul\":3750:3757   */\n      0x00\n        /* \"#utility.yul\":3790:3832   */\n      0xffffffffffffffffffffffffffffffffffffffff\n        /* \"#utility.yul\":3783:3788   */\n      dup3\n        /* \"#utility.yul\":3779:3833   */\n      and\n        /* \"#utility.yul\":3768:3833   */\n      swap1\n      pop\n        /* \"#utility.yul\":3713:3839   */\n      swap2\n      swap1\n      pop\n      jump\t// out\n        /* \"#utility.yul\":3845:3941   */\n    tag_91:\n        /* \"#utility.yul\":3882:3889   */\n      0x00\n        /* \"#utility.yul\":3911:3935   */\n      tag_159\n        /* \"#utility.yul\":3929:3934   */\n      dup3\n        /* \"#utility.yul\":3911:3935   */\n      tag_90\n      jump\t// in\n    tag_159:\n        /* \"#utility.yul\":3900:3935   */\n      swap1\n      pop\n        /* \"#utility.yul\":3845:3941   */\n      swap2\n      swap1\n      pop\n      jump\t// out\n        /* \"#utility.yul\":3947:4069   */\n    tag_92:\n        /* \"#utility.yul\":4020:4044   */\n      tag_161\n        /* \"#utility.yul\":4038:4043   */\n      dup2\n        /* \"#utility.yul\":4020:4044   */\n      tag_91\n      jump\t// in\n    tag_161:\n        /* \"#utility.yul\":4013:4018   */\n      dup2\n        /* \"#utility.yul\":4010:4045   */\n      eq\n        /* \"#utility.yul\":4000:4063   */\n      tag_162\n      jumpi\n        /* \"#utility.yul\":4059:4060   */\n      0x00\n        /* \"#utility.yul\":4056:4057   */\n      dup1\n        /* \"#utility.yul\":4049:4061   */\n      revert\n        /* \"#utility.yul\":4000:4063   */\n    tag_162:\n        /* \"#utility.yul\":3947:4069   */\n      pop\n      jump\t// out\n        /* \"#utility.yul\":4075:4214   */\n    tag_93:\n        /* \"#utility.yul\":4121:4126   */\n      0x00\n        /* \"#utility.yul\":4159:4165   */\n      dup2\n        /* \"#utility.yul\":4146:4166   */\n      calldataload\n        /* \"#utility.yul\":4137:4166   */\n      swap1\n      pop\n        /* \"#utility.yul\":4175:4208   */\n      tag_164\n        /* \"#utility.yul\":4202:4207   */\n      dup2\n        /* \"#utility.yul\":4175:4208   */\n      tag_92\n      jump\t// in\n    tag_164:\n        /* \"#utility.yul\":4075:4214   */\n      swap3\n      swap2\n      pop\n      pop\n      jump\t// out\n        /* \"#utility.yul\":4220:4549   */\n    tag_12:\n        /* \"#utility.yul\":4279:4285   */\n      0x00\n        /* \"#utility.yul\":4328:4330   */\n      0x20\n        /* \"#utility.yul\":4316:4325   */\n      dup3\n        /* \"#utility.yul\":4307:4314   */\n      dup5\n        /* \"#utility.yul\":4303:4326   */\n      sub\n        /* \"#utility.yul\":4299:4331   */\n      slt\n        /* \"#utility.yul\":4296:4415   */\n      iszero\n      tag_166\n      jumpi\n        /* \"#utility.yul\":4334:4413   */\n      tag_167\n      tag_78\n      jump\t// in\n    tag_167:\n        /* \"#utility.yul\":4296:4415   */\n    tag_166:\n        /* \"#utility.yul\":4454:4455   */\n      0x00\n        /* \"#utility.yul\":4479:4532   */\n      tag_168\n        /* \"#utility.yul\":4524:4531   */\n      dup5\n        /* \"#utility.yul\":4515:4521   */\n      dup3\n        /* \"#utility.yul\":4504:4513   */\n      dup6\n        /* \"#utility.yul\":4500:4522   */\n      add\n        /* \"#utility.yul\":4479:4532   */\n      tag_93\n      jump\t// in\n    tag_168:\n        /* \"#utility.yul\":4469:4532   */\n      swap2\n      pop\n        /* \"#utility.yul\":4425:4542   */\n      pop\n        /* \"#utility.yul\":4220:4549   */\n      swap3\n      swap2\n      pop\n      pop\n      jump\t// out\n        /* \"#utility.yul\":4555:4690   */\n    tag_94:\n        /* \"#utility.yul\":4643:4649   */\n      0x00\n        /* \"#utility.yul\":4677:4682   */\n      dup2\n        /* \"#utility.yul\":4671:4683   */\n      mload\n        /* \"#utility.yul\":4661:4683   */\n      swap1\n      pop\n        /* \"#utility.yul\":4555:4690   */\n      swap2\n      swap1\n      pop\n      jump\t// out\n        /* \"#utility.yul\":4696:4901   */\n    tag_95:\n        /* \"#utility.yul\":4816:4827   */\n      0x00\n        /* \"#utility.yul\":4850:4856   */\n      dup3\n        /* \"#utility.yul\":4845:4848   */\n      dup3\n        /* \"#utility.yul\":4838:4857   */\n      mstore\n        /* \"#utility.yul\":4890:4894   */\n      0x20\n        /* \"#utility.yul\":4885:4888   */\n      dup3\n        /* \"#utility.yul\":4881:4895   */\n      add\n        /* \"#utility.yul\":4866:4895   */\n      swap1\n      pop\n        /* \"#utility.yul\":4696:4901   */\n      swap3\n      swap2\n      pop\n      pop\n      jump\t// out\n        /* \"#utility.yul\":4907:5060   */\n    tag_96:\n        /* \"#utility.yul\":4995:4999   */\n      0x00\n        /* \"#utility.yul\":5018:5021   */\n      dup2\n        /* \"#utility.yul\":5010:5021   */\n      swap1\n      pop\n        /* \"#utility.yul\":5048:5052   */\n      0x20\n        /* \"#utility.yul\":5043:5046   */\n      dup3\n        /* \"#utility.yul\":5039:5053   */\n      add\n        /* \"#utility.yul\":5031:5053   */\n      swap1\n      pop\n        /* \"#utility.yul\":4907:5060   */\n      swap2\n      swap1\n      pop\n      jump\t// out\n        /* \"#utility.yul\":5066:5165   */\n    tag_97:\n        /* \"#utility.yul\":5118:5124   */\n      0x00\n        /* \"#utility.yul\":5152:5157   */\n      dup2\n        /* \"#utility.yul\":5146:5158   */\n      mload\n        /* \"#utility.yul\":5136:5158   */\n      swap1\n      pop\n        /* \"#utility.yul\":5066:5165   */\n      swap2\n      swap1\n      pop\n      jump\t// out\n        /* \"#utility.yul\":5171:5330   */\n    tag_98:\n        /* \"#utility.yul\":5245:5256   */\n      0x00\n        /* \"#utility.yul\":5279:5285   */\n      dup3\n        /* \"#utility.yul\":5274:5277   */\n      dup3\n        /* \"#utility.yul\":5267:5286   */\n      mstore\n        /* \"#utility.yul\":5319:5323   */\n      0x20\n        /* \"#utility.yul\":5314:5317   */\n      dup3\n        /* \"#utility.yul\":5310:5324   */\n      add\n        /* \"#utility.yul\":5295:5324   */\n      swap1\n      pop\n        /* \"#utility.yul\":5171:5330   */\n      swap3\n      swap2\n      pop\n      pop\n      jump\t// out\n        /* \"#utility.yul\":5336:5643   */\n    tag_99:\n        /* \"#utility.yul\":5404:5405   */\n      0x00\n        /* \"#utility.yul\":5414:5527   */\n    tag_175:\n        /* \"#utility.yul\":5428:5434   */\n      dup4\n        /* \"#utility.yul\":5425:5426   */\n      dup2\n        /* \"#utility.yul\":5422:5435   */\n      lt\n        /* \"#utility.yul\":5414:5527   */\n      iszero\n      tag_177\n      jumpi\n        /* \"#utility.yul\":5513:5514   */\n      dup1\n        /* \"#utility.yul\":5508:5511   */\n      dup3\n        /* \"#utility.yul\":5504:5515   */\n      add\n        /* \"#utility.yul\":5498:5516   */\n      mload\n        /* \"#utility.yul\":5494:5495   */\n      dup2\n        /* \"#utility.yul\":5489:5492   */\n      dup5\n        /* \"#utility.yul\":5485:5496   */\n      add\n        /* \"#utility.yul\":5478:5517   */\n      mstore\n        /* \"#utility.yul\":5450:5452   */\n      0x20\n        /* \"#utility.yul\":5447:5448   */\n      dup2\n        /* \"#utility.yul\":5443:5453   */\n      add\n        /* \"#utility.yul\":5438:5453   */\n      swap1\n      pop\n        /* \"#utility.yul\":5414:5527   */\n      jump(tag_175)\n    tag_177:\n        /* \"#utility.yul\":5545:5551   */\n      dup4\n        /* \"#utility.yul\":5542:5543   */\n      dup2\n        /* \"#utility.yul\":5539:5552   */\n      gt\n        /* \"#utility.yul\":5536:5637   */\n      iszero\n      tag_178\n      jumpi\n        /* \"#utility.yul\":5625:5626   */\n      0x00\n        /* \"#utility.yul\":5616:5622   */\n      dup5\n        /* \"#utility.yul\":5611:5614   */\n      dup5\n        /* \"#utility.yul\":5607:5623   */\n      add\n        /* \"#utility.yul\":5600:5627   */\n      mstore\n        /* \"#utility.yul\":5536:5637   */\n    tag_178:\n        /* \"#utility.yul\":5385:5643   */\n      pop\n        /* \"#utility.yul\":5336:5643   */\n      pop\n      pop\n      pop\n      jump\t// out\n        /* \"#utility.yul\":5649:5993   */\n    tag_100:\n        /* \"#utility.yul\":5727:5730   */\n      0x00\n        /* \"#utility.yul\":5755:5794   */\n      tag_180\n        /* \"#utility.yul\":5788:5793   */\n      dup3\n        /* \"#utility.yul\":5755:5794   */\n      tag_97\n      jump\t// in\n    tag_180:\n        /* \"#utility.yul\":5810:5871   */\n      tag_181\n        /* \"#utility.yul\":5864:5870   */\n      dup2\n        /* \"#utility.yul\":5859:5862   */\n      dup6\n        /* \"#utility.yul\":5810:5871   */\n      tag_98\n      jump\t// in\n    tag_181:\n        /* \"#utility.yul\":5803:5871   */\n      swap4\n      pop\n        /* \"#utility.yul\":5880:5932   */\n      tag_182\n        /* \"#utility.yul\":5925:5931   */\n      dup2\n        /* \"#utility.yul\":5920:5923   */\n      dup6\n        /* \"#utility.yul\":5913:5917   */\n      0x20\n        /* \"#utility.yul\":5906:5911   */\n      dup7\n        /* \"#utility.yul\":5902:5918   */\n      add\n        /* \"#utility.yul\":5880:5932   */\n      tag_99\n      jump\t// in\n    tag_182:\n        /* \"#utility.yul\":5957:5986   */\n      tag_183\n        /* \"#utility.yul\":5979:5985   */\n      dup2\n        /* \"#utility.yul\":5957:5986   */\n      tag_82\n      jump\t// in\n    tag_183:\n        /* \"#utility.yul\":5952:5955   */\n      dup5\n        /* \"#utility.yul\":5948:5987   */\n      add\n        /* \"#utility.yul\":5941:5987   */\n      swap2\n      pop\n        /* \"#utility.yul\":5731:5993   */\n      pop\n        /* \"#utility.yul\":5649:5993   */\n      swap3\n      swap2\n      pop\n      pop\n      jump\t// out\n        /* \"#utility.yul\":5999:6107   */\n    tag_101:\n        /* \"#utility.yul\":6076:6100   */\n      tag_185\n        /* \"#utility.yul\":6094:6099   */\n      dup2\n        /* \"#utility.yul\":6076:6100   */\n      tag_91\n      jump\t// in\n    tag_185:\n        /* \"#utility.yul\":6071:6074   */\n      dup3\n        /* \"#utility.yul\":6064:6101   */\n      mstore\n        /* \"#utility.yul\":5999:6107   */\n      pop\n      pop\n      jump\t// out\n        /* \"#utility.yul\":6113:6190   */\n    tag_102:\n        /* \"#utility.yul\":6150:6157   */\n      0x00\n        /* \"#utility.yul\":6179:6184   */\n      dup2\n        /* \"#utility.yul\":6168:6184   */\n      swap1\n      pop\n        /* \"#utility.yul\":6113:6190   */\n      swap2\n      swap1\n      pop\n      jump\t// out\n        /* \"#utility.yul\":6196:6304   */\n    tag_103:\n        /* \"#utility.yul\":6273:6297   */\n      tag_188\n        /* \"#utility.yul\":6291:6296   */\n      dup2\n        /* \"#utility.yul\":6273:6297   */\n      tag_102\n      jump\t// in\n    tag_188:\n        /* \"#utility.yul\":6268:6271   */\n      dup3\n        /* \"#utility.yul\":6261:6298   */\n      mstore\n        /* \"#utility.yul\":6196:6304   */\n      pop\n      pop\n      jump\t// out\n        /* \"#utility.yul\":6392:7660   */\n    tag_104:\n        /* \"#utility.yul\":6493:6496   */\n      0x00\n        /* \"#utility.yul\":6529:6533   */\n      0xa0\n        /* \"#utility.yul\":6524:6527   */\n      dup4\n        /* \"#utility.yul\":6520:6534   */\n      add\n        /* \"#utility.yul\":6621:6625   */\n      0x00\n        /* \"#utility.yul\":6614:6619   */\n      dup4\n        /* \"#utility.yul\":6610:6626   */\n      add\n        /* \"#utility.yul\":6604:6627   */\n      mload\n        /* \"#utility.yul\":6674:6677   */\n      dup5\n        /* \"#utility.yul\":6668:6672   */\n      dup3\n        /* \"#utility.yul\":6664:6678   */\n      sub\n        /* \"#utility.yul\":6657:6661   */\n      0x00\n        /* \"#utility.yul\":6652:6655   */\n      dup7\n        /* \"#utility.yul\":6648:6662   */\n      add\n        /* \"#utility.yul\":6641:6679   */\n      mstore\n        /* \"#utility.yul\":6700:6773   */\n      tag_190\n        /* \"#utility.yul\":6768:6772   */\n      dup3\n        /* \"#utility.yul\":6754:6766   */\n      dup3\n        /* \"#utility.yul\":6700:6773   */\n      tag_100\n      jump\t// in\n    tag_190:\n        /* \"#utility.yul\":6692:6773   */\n      swap2\n      pop\n        /* \"#utility.yul\":6544:6784   */\n      pop\n        /* \"#utility.yul\":6869:6873   */\n      0x20\n        /* \"#utility.yul\":6862:6867   */\n      dup4\n        /* \"#utility.yul\":6858:6874   */\n      add\n        /* \"#utility.yul\":6852:6875   */\n      mload\n        /* \"#utility.yul\":6922:6925   */\n      dup5\n        /* \"#utility.yul\":6916:6920   */\n      dup3\n        /* \"#utility.yul\":6912:6926   */\n      sub\n        /* \"#utility.yul\":6905:6909   */\n      0x20\n        /* \"#utility.yul\":6900:6903   */\n      dup7\n        /* \"#utility.yul\":6896:6910   */\n      add\n        /* \"#utility.yul\":6889:6927   */\n      mstore\n        /* \"#utility.yul\":6948:7021   */\n      tag_191\n        /* \"#utility.yul\":7016:7020   */\n      dup3\n        /* \"#utility.yul\":7002:7014   */\n      dup3\n        /* \"#utility.yul\":6948:7021   */\n      tag_100\n      jump\t// in\n    tag_191:\n        /* \"#utility.yul\":6940:7021   */\n      swap2\n      pop\n        /* \"#utility.yul\":6794:7032   */\n      pop\n        /* \"#utility.yul\":7113:7117   */\n      0x40\n        /* \"#utility.yul\":7106:7111   */\n      dup4\n        /* \"#utility.yul\":7102:7118   */\n      add\n        /* \"#utility.yul\":7096:7119   */\n      mload\n        /* \"#utility.yul\":7166:7169   */\n      dup5\n        /* \"#utility.yul\":7160:7164   */\n      dup3\n        /* \"#utility.yul\":7156:7170   */\n      sub\n        /* \"#utility.yul\":7149:7153   */\n      0x40\n        /* \"#utility.yul\":7144:7147   */\n      dup7\n        /* \"#utility.yul\":7140:7154   */\n      add\n        /* \"#utility.yul\":7133:7171   */\n      mstore\n        /* \"#utility.yul\":7192:7265   */\n      tag_192\n        /* \"#utility.yul\":7260:7264   */\n      dup3\n        /* \"#utility.yul\":7246:7258   */\n      dup3\n        /* \"#utility.yul\":7192:7265   */\n      tag_100\n      jump\t// in\n    tag_192:\n        /* \"#utility.yul\":7184:7265   */\n      swap2\n      pop\n        /* \"#utility.yul\":7042:7276   */\n      pop\n        /* \"#utility.yul\":7362:7366   */\n      0x60\n        /* \"#utility.yul\":7355:7360   */\n      dup4\n        /* \"#utility.yul\":7351:7367   */\n      add\n        /* \"#utility.yul\":7345:7368   */\n      mload\n        /* \"#utility.yul\":7381:7444   */\n      tag_193\n        /* \"#utility.yul\":7438:7442   */\n      0x60\n        /* \"#utility.yul\":7433:7436   */\n      dup7\n        /* \"#utility.yul\":7429:7443   */\n      add\n        /* \"#utility.yul\":7415:7427   */\n      dup3\n        /* \"#utility.yul\":7381:7444   */\n      tag_101\n      jump\t// in\n    tag_193:\n        /* \"#utility.yul\":7286:7454   */\n      pop\n        /* \"#utility.yul\":7541:7545   */\n      0x80\n        /* \"#utility.yul\":7534:7539   */\n      dup4\n        /* \"#utility.yul\":7530:7546   */\n      add\n        /* \"#utility.yul\":7524:7547   */\n      mload\n        /* \"#utility.yul\":7560:7623   */\n      tag_194\n        /* \"#utility.yul\":7617:7621   */\n      0x80\n        /* \"#utility.yul\":7612:7615   */\n      dup7\n        /* \"#utility.yul\":7608:7622   */\n      add\n        /* \"#utility.yul\":7594:7606   */\n      dup3\n        /* \"#utility.yul\":7560:7623   */\n      tag_103\n      jump\t// in\n    tag_194:\n        /* \"#utility.yul\":7464:7633   */\n      pop\n        /* \"#utility.yul\":7650:7654   */\n      dup1\n        /* \"#utility.yul\":7643:7654   */\n      swap2\n      pop\n        /* \"#utility.yul\":6498:7660   */\n      pop\n        /* \"#utility.yul\":6392:7660   */\n      swap3\n      swap2\n      pop\n      pop\n      jump\t// out\n        /* \"#utility.yul\":7666:7906   */\n    tag_105:\n        /* \"#utility.yul\":7777:7787   */\n      0x00\n        /* \"#utility.yul\":7812:7900   */\n      tag_196\n        /* \"#utility.yul\":7896:7899   */\n      dup4\n        /* \"#utility.yul\":7888:7894   */\n      dup4\n        /* \"#utility.yul\":7812:7900   */\n      tag_104\n      jump\t// in\n    tag_196:\n        /* \"#utility.yul\":7798:7900   */\n      swap1\n      pop\n        /* \"#utility.yul\":7666:7906   */\n      swap3\n      swap2\n      pop\n      pop\n      jump\t// out\n        /* \"#utility.yul\":7912:8046   */\n    tag_106:\n        /* \"#utility.yul\":8003:8007   */\n      0x00\n        /* \"#utility.yul\":8035:8039   */\n      0x20\n        /* \"#utility.yul\":8030:8033   */\n      dup3\n        /* \"#utility.yul\":8026:8040   */\n      add\n        /* \"#utility.yul\":8018:8040   */\n      swap1\n      pop\n        /* \"#utility.yul\":7912:8046   */\n      swap2\n      swap1\n      pop\n      jump\t// out\n        /* \"#utility.yul\":8138:9217   */\n    tag_107:\n        /* \"#utility.yul\":8299:8302   */\n      0x00\n        /* \"#utility.yul\":8328:8403   */\n      tag_199\n        /* \"#utility.yul\":8397:8402   */\n      dup3\n        /* \"#utility.yul\":8328:8403   */\n      tag_94\n      jump\t// in\n    tag_199:\n        /* \"#utility.yul\":8419:8526   */\n      tag_200\n        /* \"#utility.yul\":8519:8525   */\n      dup2\n        /* \"#utility.yul\":8514:8517   */\n      dup6\n        /* \"#utility.yul\":8419:8526   */\n      tag_95\n      jump\t// in\n    tag_200:\n        /* \"#utility.yul\":8412:8526   */\n      swap4\n      pop\n        /* \"#utility.yul\":8552:8555   */\n      dup4\n        /* \"#utility.yul\":8597:8601   */\n      0x20\n        /* \"#utility.yul\":8589:8595   */\n      dup3\n        /* \"#utility.yul\":8585:8602   */\n      mul\n        /* \"#utility.yul\":8580:8583   */\n      dup6\n        /* \"#utility.yul\":8576:8603   */\n      add\n        /* \"#utility.yul\":8627:8704   */\n      tag_201\n        /* \"#utility.yul\":8698:8703   */\n      dup6\n        /* \"#utility.yul\":8627:8704   */\n      tag_96\n      jump\t// in\n    tag_201:\n        /* \"#utility.yul\":8727:8734   */\n      dup1\n        /* \"#utility.yul\":8758:8759   */\n      0x00\n        /* \"#utility.yul\":8743:9172   */\n    tag_202:\n        /* \"#utility.yul\":8768:8774   */\n      dup6\n        /* \"#utility.yul\":8765:8766   */\n      dup2\n        /* \"#utility.yul\":8762:8775   */\n      lt\n        /* \"#utility.yul\":8743:9172   */\n      iszero\n      tag_204\n      jumpi\n        /* \"#utility.yul\":8839:8848   */\n      dup5\n        /* \"#utility.yul\":8833:8837   */\n      dup5\n        /* \"#utility.yul\":8829:8849   */\n      sub\n        /* \"#utility.yul\":8824:8827   */\n      dup10\n        /* \"#utility.yul\":8817:8850   */\n      mstore\n        /* \"#utility.yul\":8890:8896   */\n      dup2\n        /* \"#utility.yul\":8884:8897   */\n      mload\n        /* \"#utility.yul\":8918:9024   */\n      tag_205\n        /* \"#utility.yul\":9019:9023   */\n      dup6\n        /* \"#utility.yul\":9004:9017   */\n      dup3\n        /* \"#utility.yul\":8918:9024   */\n      tag_105\n      jump\t// in\n    tag_205:\n        /* \"#utility.yul\":8910:9024   */\n      swap5\n      pop\n        /* \"#utility.yul\":9047:9128   */\n      tag_206\n        /* \"#utility.yul\":9121:9127   */\n      dup4\n        /* \"#utility.yul\":9047:9128   */\n      tag_106\n      jump\t// in\n    tag_206:\n        /* \"#utility.yul\":9037:9128   */\n      swap3\n      pop\n        /* \"#utility.yul\":9157:9161   */\n      0x20\n        /* \"#utility.yul\":9152:9155   */\n      dup11\n        /* \"#utility.yul\":9148:9162   */\n      add\n        /* \"#utility.yul\":9141:9162   */\n      swap10\n      pop\n        /* \"#utility.yul\":8803:9172   */\n      pop\n        /* \"#utility.yul\":8790:8791   */\n      0x01\n        /* \"#utility.yul\":8787:8788   */\n      dup2\n        /* \"#utility.yul\":8783:8792   */\n      add\n        /* \"#utility.yul\":8778:8792   */\n      swap1\n      pop\n        /* \"#utility.yul\":8743:9172   */\n      jump(tag_202)\n    tag_204:\n        /* \"#utility.yul\":8747:8761   */\n      pop\n        /* \"#utility.yul\":9188:9192   */\n      dup3\n        /* \"#utility.yul\":9181:9192   */\n      swap8\n      pop\n        /* \"#utility.yul\":9208:9211   */\n      dup8\n        /* \"#utility.yul\":9201:9211   */\n      swap6\n      pop\n        /* \"#utility.yul\":8304:9217   */\n      pop\n      pop\n      pop\n      pop\n      pop\n        /* \"#utility.yul\":8138:9217   */\n      swap3\n      swap2\n      pop\n      pop\n      jump\t// out\n        /* \"#utility.yul\":9223:9680   */\n    tag_15:\n        /* \"#utility.yul\":9408:9412   */\n      0x00\n        /* \"#utility.yul\":9446:9448   */\n      0x20\n        /* \"#utility.yul\":9435:9444   */\n      dup3\n        /* \"#utility.yul\":9431:9449   */\n      add\n        /* \"#utility.yul\":9423:9449   */\n      swap1\n      pop\n        /* \"#utility.yul\":9495:9504   */\n      dup2\n        /* \"#utility.yul\":9489:9493   */\n      dup2\n        /* \"#utility.yul\":9485:9505   */\n      sub\n        /* \"#utility.yul\":9481:9482   */\n      0x00\n        /* \"#utility.yul\":9470:9479   */\n      dup4\n        /* \"#utility.yul\":9466:9483   */\n      add\n        /* \"#utility.yul\":9459:9506   */\n      mstore\n        /* \"#utility.yul\":9523:9673   */\n      tag_208\n        /* \"#utility.yul\":9668:9672   */\n      dup2\n        /* \"#utility.yul\":9659:9665   */\n      dup5\n        /* \"#utility.yul\":9523:9673   */\n      tag_107\n      jump\t// in\n    tag_208:\n        /* \"#utility.yul\":9515:9673   */\n      swap1\n      pop\n        /* \"#utility.yul\":9223:9680   */\n      swap3\n      swap2\n      pop\n      pop\n      jump\t// out\n        /* \"#utility.yul\":9686:9808   */\n    tag_108:\n        /* \"#utility.yul\":9759:9783   */\n      tag_210\n        /* \"#utility.yul\":9777:9782   */\n      dup2\n        /* \"#utility.yul\":9759:9783   */\n      tag_102\n      jump\t// in\n    tag_210:\n        /* \"#utility.yul\":9752:9757   */\n      dup2\n        /* \"#utility.yul\":9749:9784   */\n      eq\n        /* \"#utility.yul\":9739:9802   */\n      tag_211\n      jumpi\n        /* \"#utility.yul\":9798:9799   */\n      0x00\n        /* \"#utility.yul\":9795:9796   */\n      dup1\n        /* \"#utility.yul\":9788:9800   */\n      revert\n        /* \"#utility.yul\":9739:9802   */\n    tag_211:\n        /* \"#utility.yul\":9686:9808   */\n      pop\n      jump\t// out\n        /* \"#utility.yul\":9814:9953   */\n    tag_109:\n        /* \"#utility.yul\":9860:9865   */\n      0x00\n        /* \"#utility.yul\":9898:9904   */\n      dup2\n        /* \"#utility.yul\":9885:9905   */\n      calldataload\n        /* \"#utility.yul\":9876:9905   */\n      swap1\n      pop\n        /* \"#utility.yul\":9914:9947   */\n      tag_213\n        /* \"#utility.yul\":9941:9946   */\n      dup2\n        /* \"#utility.yul\":9914:9947   */\n      tag_108\n      jump\t// in\n    tag_213:\n        /* \"#utility.yul\":9814:9953   */\n      swap3\n      swap2\n      pop\n      pop\n      jump\t// out\n        /* \"#utility.yul\":9959:10433   */\n    tag_18:\n        /* \"#utility.yul\":10027:10033   */\n      0x00\n        /* \"#utility.yul\":10035:10041   */\n      dup1\n        /* \"#utility.yul\":10084:10086   */\n      0x40\n        /* \"#utility.yul\":10072:10081   */\n      dup4\n        /* \"#utility.yul\":10063:10070   */\n      dup6\n        /* \"#utility.yul\":10059:10082   */\n      sub\n        /* \"#utility.yul\":10055:10087   */\n      slt\n        /* \"#utility.yul\":10052:10171   */\n      iszero\n      tag_215\n      jumpi\n        /* \"#utility.yul\":10090:10169   */\n      tag_216\n      tag_78\n      jump\t// in\n    tag_216:\n        /* \"#utility.yul\":10052:10171   */\n    tag_215:\n        /* \"#utility.yul\":10210:10211   */\n      0x00\n        /* \"#utility.yul\":10235:10288   */\n      tag_217\n        /* \"#utility.yul\":10280:10287   */\n      dup6\n        /* \"#utility.yul\":10271:10277   */\n      dup3\n        /* \"#utility.yul\":10260:10269   */\n      dup7\n        /* \"#utility.yul\":10256:10278   */\n      add\n        /* \"#utility.yul\":10235:10288   */\n      tag_93\n      jump\t// in\n    tag_217:\n        /* \"#utility.yul\":10225:10288   */\n      swap3\n      pop\n        /* \"#utility.yul\":10181:10298   */\n      pop\n        /* \"#utility.yul\":10337:10339   */\n      0x20\n        /* \"#utility.yul\":10363:10416   */\n      tag_218\n        /* \"#utility.yul\":10408:10415   */\n      dup6\n        /* \"#utility.yul\":10399:10405   */\n      dup3\n        /* \"#utility.yul\":10388:10397   */\n      dup7\n        /* \"#utility.yul\":10384:10406   */\n      add\n        /* \"#utility.yul\":10363:10416   */\n      tag_109\n      jump\t// in\n    tag_218:\n        /* \"#utility.yul\":10353:10416   */\n      swap2\n      pop\n        /* \"#utility.yul\":10308:10426   */\n      pop\n        /* \"#utility.yul\":9959:10433   */\n      swap3\n      pop\n      swap3\n      swap1\n      pop\n      jump\t// out\n        /* \"#utility.yul\":10439:10608   */\n    tag_110:\n        /* \"#utility.yul\":10523:10534   */\n      0x00\n        /* \"#utility.yul\":10557:10563   */\n      dup3\n        /* \"#utility.yul\":10552:10555   */\n      dup3\n        /* \"#utility.yul\":10545:10564   */\n      mstore\n        /* \"#utility.yul\":10597:10601   */\n      0x20\n        /* \"#utility.yul\":10592:10595   */\n      dup3\n        /* \"#utility.yul\":10588:10602   */\n      add\n        /* \"#utility.yul\":10573:10602   */\n      swap1\n      pop\n        /* \"#utility.yul\":10439:10608   */\n      swap3\n      swap2\n      pop\n      pop\n      jump\t// out\n        /* \"#utility.yul\":10614:10978   */\n    tag_111:\n        /* \"#utility.yul\":10702:10705   */\n      0x00\n        /* \"#utility.yul\":10730:10769   */\n      tag_221\n        /* \"#utility.yul\":10763:10768   */\n      dup3\n        /* \"#utility.yul\":10730:10769   */\n      tag_97\n      jump\t// in\n    tag_221:\n        /* \"#utility.yul\":10785:10856   */\n      tag_222\n        /* \"#utility.yul\":10849:10855   */\n      dup2\n        /* \"#utility.yul\":10844:10847   */\n      dup6\n        /* \"#utility.yul\":10785:10856   */\n      tag_110\n      jump\t// in\n    tag_222:\n        /* \"#utility.yul\":10778:10856   */\n      swap4\n      pop\n        /* \"#utility.yul\":10865:10917   */\n      tag_223\n        /* \"#utility.yul\":10910:10916   */\n      dup2\n        /* \"#utility.yul\":10905:10908   */\n      dup6\n        /* \"#utility.yul\":10898:10902   */\n      0x20\n        /* \"#utility.yul\":10891:10896   */\n      dup7\n        /* \"#utility.yul\":10887:10903   */\n      add\n        /* \"#utility.yul\":10865:10917   */\n      tag_99\n      jump\t// in\n    tag_223:\n        /* \"#utility.yul\":10942:10971   */\n      tag_224\n        /* \"#utility.yul\":10964:10970   */\n      dup2\n        /* \"#utility.yul\":10942:10971   */\n      tag_82\n      jump\t// in\n    tag_224:\n        /* \"#utility.yul\":10937:10940   */\n      dup5\n        /* \"#utility.yul\":10933:10972   */\n      add\n        /* \"#utility.yul\":10926:10972   */\n      swap2\n      pop\n        /* \"#utility.yul\":10706:10978   */\n      pop\n        /* \"#utility.yul\":10614:10978   */\n      swap3\n      swap2\n      pop\n      pop\n      jump\t// out\n        /* \"#utility.yul\":10984:11102   */\n    tag_112:\n        /* \"#utility.yul\":11071:11095   */\n      tag_226\n        /* \"#utility.yul\":11089:11094   */\n      dup2\n        /* \"#utility.yul\":11071:11095   */\n      tag_91\n      jump\t// in\n    tag_226:\n        /* \"#utility.yul\":11066:11069   */\n      dup3\n        /* \"#utility.yul\":11059:11096   */\n      mstore\n        /* \"#utility.yul\":10984:11102   */\n      pop\n      pop\n      jump\t// out\n        /* \"#utility.yul\":11108:11226   */\n    tag_113:\n        /* \"#utility.yul\":11195:11219   */\n      tag_228\n        /* \"#utility.yul\":11213:11218   */\n      dup2\n        /* \"#utility.yul\":11195:11219   */\n      tag_102\n      jump\t// in\n    tag_228:\n        /* \"#utility.yul\":11190:11193   */\n      dup3\n        /* \"#utility.yul\":11183:11220   */\n      mstore\n        /* \"#utility.yul\":11108:11226   */\n      pop\n      pop\n      jump\t// out\n        /* \"#utility.yul\":11232:12169   */\n    tag_21:\n        /* \"#utility.yul\":11497:11501   */\n      0x00\n        /* \"#utility.yul\":11535:11538   */\n      0xa0\n        /* \"#utility.yul\":11524:11533   */\n      dup3\n        /* \"#utility.yul\":11520:11539   */\n      add\n        /* \"#utility.yul\":11512:11539   */\n      swap1\n      pop\n        /* \"#utility.yul\":11585:11594   */\n      dup2\n        /* \"#utility.yul\":11579:11583   */\n      dup2\n        /* \"#utility.yul\":11575:11595   */\n      sub\n        /* \"#utility.yul\":11571:11572   */\n      0x00\n        /* \"#utility.yul\":11560:11569   */\n      dup4\n        /* \"#utility.yul\":11556:11573   */\n      add\n        /* \"#utility.yul\":11549:11596   */\n      mstore\n        /* \"#utility.yul\":11613:11691   */\n      tag_230\n        /* \"#utility.yul\":11686:11690   */\n      dup2\n        /* \"#utility.yul\":11677:11683   */\n      dup9\n        /* \"#utility.yul\":11613:11691   */\n      tag_111\n      jump\t// in\n    tag_230:\n        /* \"#utility.yul\":11605:11691   */\n      swap1\n      pop\n        /* \"#utility.yul\":11738:11747   */\n      dup2\n        /* \"#utility.yul\":11732:11736   */\n      dup2\n        /* \"#utility.yul\":11728:11748   */\n      sub\n        /* \"#utility.yul\":11723:11725   */\n      0x20\n        /* \"#utility.yul\":11712:11721   */\n      dup4\n        /* \"#utility.yul\":11708:11726   */\n      add\n        /* \"#utility.yul\":11701:11749   */\n      mstore\n        /* \"#utility.yul\":11766:11844   */\n      tag_231\n        /* \"#utility.yul\":11839:11843   */\n      dup2\n        /* \"#utility.yul\":11830:11836   */\n      dup8\n        /* \"#utility.yul\":11766:11844   */\n      tag_111\n      jump\t// in\n    tag_231:\n        /* \"#utility.yul\":11758:11844   */\n      swap1\n      pop\n        /* \"#utility.yul\":11891:11900   */\n      dup2\n        /* \"#utility.yul\":11885:11889   */\n      dup2\n        /* \"#utility.yul\":11881:11901   */\n      sub\n        /* \"#utility.yul\":11876:11878   */\n      0x40\n        /* \"#utility.yul\":11865:11874   */\n      dup4\n        /* \"#utility.yul\":11861:11879   */\n      add\n        /* \"#utility.yul\":11854:11902   */\n      mstore\n        /* \"#utility.yul\":11919:11997   */\n      tag_232\n        /* \"#utility.yul\":11992:11996   */\n      dup2\n        /* \"#utility.yul\":11983:11989   */\n      dup7\n        /* \"#utility.yul\":11919:11997   */\n      tag_111\n      jump\t// in\n    tag_232:\n        /* \"#utility.yul\":11911:11997   */\n      swap1\n      pop\n        /* \"#utility.yul\":12007:12079   */\n      tag_233\n        /* \"#utility.yul\":12075:12077   */\n      0x60\n        /* \"#utility.yul\":12064:12073   */\n      dup4\n        /* \"#utility.yul\":12060:12078   */\n      add\n        /* \"#utility.yul\":12051:12057   */\n      dup6\n        /* \"#utility.yul\":12007:12079   */\n      tag_112\n      jump\t// in\n    tag_233:\n        /* \"#utility.yul\":12089:12162   */\n      tag_234\n        /* \"#utility.yul\":12157:12160   */\n      0x80\n        /* \"#utility.yul\":12146:12155   */\n      dup4\n        /* \"#utility.yul\":12142:12161   */\n      add\n        /* \"#utility.yul\":12133:12139   */\n      dup5\n        /* \"#utility.yul\":12089:12162   */\n      tag_113\n      jump\t// in\n    tag_234:\n        /* \"#utility.yul\":11232:12169   */\n      swap7\n      swap6\n      pop\n      pop\n      pop\n      pop\n      pop\n      pop\n      jump\t// out\n        /* \"#utility.yul\":12175:13001   */\n    tag_29:\n        /* \"#utility.yul\":12412:12416   */\n      0x00\n        /* \"#utility.yul\":12450:12453   */\n      0x80\n        /* \"#utility.yul\":12439:12448   */\n      dup3\n        /* \"#utility.yul\":12435:12454   */\n      add\n        /* \"#utility.yul\":12427:12454   */\n      swap1\n      pop\n        /* \"#utility.yul\":12500:12509   */\n      dup2\n        /* \"#utility.yul\":12494:12498   */\n      dup2\n        /* \"#utility.yul\":12490:12510   */\n      sub\n        /* \"#utility.yul\":12486:12487   */\n      0x00\n        /* \"#utility.yul\":12475:12484   */\n      dup4\n        /* \"#utility.yul\":12471:12488   */\n      add\n        /* \"#utility.yul\":12464:12511   */\n      mstore\n        /* \"#utility.yul\":12528:12606   */\n      tag_236\n        /* \"#utility.yul\":12601:12605   */\n      dup2\n        /* \"#utility.yul\":12592:12598   */\n      dup8\n        /* \"#utility.yul\":12528:12606   */\n      tag_111\n      jump\t// in\n    tag_236:\n        /* \"#utility.yul\":12520:12606   */\n      swap1\n      pop\n        /* \"#utility.yul\":12653:12662   */\n      dup2\n        /* \"#utility.yul\":12647:12651   */\n      dup2\n        /* \"#utility.yul\":12643:12663   */\n      sub\n        /* \"#utility.yul\":12638:12640   */\n      0x20\n        /* \"#utility.yul\":12627:12636   */\n      dup4\n        /* \"#utility.yul\":12623:12641   */\n      add\n        /* \"#utility.yul\":12616:12664   */\n      mstore\n        /* \"#utility.yul\":12681:12759   */\n      tag_237\n        /* \"#utility.yul\":12754:12758   */\n      dup2\n        /* \"#utility.yul\":12745:12751   */\n      dup7\n        /* \"#utility.yul\":12681:12759   */\n      tag_111\n      jump\t// in\n    tag_237:\n        /* \"#utility.yul\":12673:12759   */\n      swap1\n      pop\n        /* \"#utility.yul\":12806:12815   */\n      dup2\n        /* \"#utility.yul\":12800:12804   */\n      dup2\n        /* \"#utility.yul\":12796:12816   */\n      sub\n        /* \"#utility.yul\":12791:12793   */\n      0x40\n        /* \"#utility.yul\":12780:12789   */\n      dup4\n        /* \"#utility.yul\":12776:12794   */\n      add\n        /* \"#utility.yul\":12769:12817   */\n      mstore\n        /* \"#utility.yul\":12834:12912   */\n      tag_238\n        /* \"#utility.yul\":12907:12911   */\n      dup2\n        /* \"#utility.yul\":12898:12904   */\n      dup6\n        /* \"#utility.yul\":12834:12912   */\n      tag_111\n      jump\t// in\n    tag_238:\n        /* \"#utility.yul\":12826:12912   */\n      swap1\n      pop\n        /* \"#utility.yul\":12922:12994   */\n      tag_239\n        /* \"#utility.yul\":12990:12992   */\n      0x60\n        /* \"#utility.yul\":12979:12988   */\n      dup4\n        /* \"#utility.yul\":12975:12993   */\n      add\n        /* \"#utility.yul\":12966:12972   */\n      dup5\n        /* \"#utility.yul\":12922:12994   */\n      tag_113\n      jump\t// in\n    tag_239:\n        /* \"#utility.yul\":12175:13001   */\n      swap6\n      swap5\n      pop\n      pop\n      pop\n      pop\n      pop\n      jump\t// out\n        /* \"#utility.yul\":13007:13187   */\n    tag_114:\n        /* \"#utility.yul\":13055:13132   */\n      0x4e487b7100000000000000000000000000000000000000000000000000000000\n        /* \"#utility.yul\":13052:13053   */\n      0x00\n        /* \"#utility.yul\":13045:13133   */\n      mstore\n        /* \"#utility.yul\":13152:13156   */\n      0x22\n        /* \"#utility.yul\":13149:13150   */\n      0x04\n        /* \"#utility.yul\":13142:13157   */\n      mstore\n        /* \"#utility.yul\":13176:13180   */\n      0x24\n        /* \"#utility.yul\":13173:13174   */\n      0x00\n        /* \"#utility.yul\":13166:13181   */\n      revert\n        /* \"#utility.yul\":13193:13513   */\n    tag_35:\n        /* \"#utility.yul\":13237:13243   */\n      0x00\n        /* \"#utility.yul\":13274:13275   */\n      0x02\n        /* \"#utility.yul\":13268:13272   */\n      dup3\n        /* \"#utility.yul\":13264:13276   */\n      div\n        /* \"#utility.yul\":13254:13276   */\n      swap1\n      pop\n        /* \"#utility.yul\":13321:13322   */\n      0x01\n        /* \"#utility.yul\":13315:13319   */\n      dup3\n        /* \"#utility.yul\":13311:13323   */\n      and\n        /* \"#utility.yul\":13342:13360   */\n      dup1\n        /* \"#utility.yul\":13332:13413   */\n      tag_242\n      jumpi\n        /* \"#utility.yul\":13398:13402   */\n      0x7f\n        /* \"#utility.yul\":13390:13396   */\n      dup3\n        /* \"#utility.yul\":13386:13403   */\n      and\n        /* \"#utility.yul\":13376:13403   */\n      swap2\n      pop\n        /* \"#utility.yul\":13332:13413   */\n    tag_242:\n        /* \"#utility.yul\":13460:13462   */\n      0x20\n        /* \"#utility.yul\":13452:13458   */\n      dup3\n        /* \"#utility.yul\":13449:13463   */\n      lt\n        /* \"#utility.yul\":13429:13447   */\n      dup2\n        /* \"#utility.yul\":13426:13464   */\n      eq\n        /* \"#utility.yul\":13423:13507   */\n      iszero\n      tag_243\n      jumpi\n        /* \"#utility.yul\":13479:13497   */\n      tag_244\n      tag_114\n      jump\t// in\n    tag_244:\n        /* \"#utility.yul\":13423:13507   */\n    tag_243:\n        /* \"#utility.yul\":13244:13513   */\n      pop\n        /* \"#utility.yul\":13193:13513   */\n      swap2\n      swap1\n      pop\n      jump\t// out\n\n    auxdata: 0xa264697066735822122058a980d638dd73acae66eb693d58ead03659d76d5642a5caf2e196f30342ce6964736f6c634300080c0033\n}\n",
				"bytecode": {
					"linkReferences": {},
					"object": "608060405234801561001057600080fd5b50610ea5806100206000396000f3fe608060405234801561001057600080fd5b50600436106100415760003560e01c80634875e9fd14610046578063cec9c6cc14610062578063ffc6c29c14610092575b600080fd5b610060600480360381019061005b919061092e565b6100c6565b005b61007c60048036038101906100779190610a33565b610273565b6040516100899190610c56565b60405180910390f35b6100ac60048036038101906100a79190610ca4565b610526565b6040516100bd959493929190610d4c565b60405180910390f35b60006040518060a001604052808581526020018481526020018381526020013373ffffffffffffffffffffffffffffffffffffffff1681526020014281525090506000803373ffffffffffffffffffffffffffffffffffffffff1673ffffffffffffffffffffffffffffffffffffffff168152602001908152602001600020819080600181540180825580915050600190039060005260206000209060050201600090919091909150600082015181600001908051906020019061018b929190610731565b5060208201518160010190805190602001906101a8929190610731565b5060408201518160020190805190602001906101c5929190610731565b5060608201518160030160006101000a81548173ffffffffffffffffffffffffffffffffffffffff021916908373ffffffffffffffffffffffffffffffffffffffff1602179055506080820151816004015550503373ffffffffffffffffffffffffffffffffffffffff167ffa01791cf2ee2d721cb83fc66c41951350595af03c57078485bd85985928a49c858585426040516102659493929190610db4565b60405180910390a250505050565b60606000808373ffffffffffffffffffffffffffffffffffffffff1673ffffffffffffffffffffffffffffffffffffffff168152602001908152602001600020805480602002602001604051908101604052809291908181526020016000905b8282101561051b57838290600052602060002090600502016040518060a001604052908160008201805461030690610e3d565b80601f016020809104026020016040519081016040528092919081815260200182805461033290610e3d565b801561037f5780601f106103545761010080835404028352916020019161037f565b820191906000526020600020905b81548152906001019060200180831161036257829003601f168201915b5050505050815260200160018201805461039890610e3d565b80601f01602080910402602001604051908101604052809291908181526020018280546103c490610e3d565b80156104115780601f106103e657610100808354040283529160200191610411565b820191906000526020600020905b8154815290600101906020018083116103f457829003601f168201915b5050505050815260200160028201805461042a90610e3d565b80601f016020809104026020016040519081016040528092919081815260200182805461045690610e3d565b80156104a35780601f10610478576101008083540402835291602001916104a3565b820191906000526020600020905b81548152906001019060200180831161048657829003601f168201915b505050505081526020016003820160009054906101000a900473ffffffffffffffffffffffffffffffffffffffff1673ffffffffffffffffffffffffffffffffffffffff1673ffffffffffffffffffffffffffffffffffffffff168152602001600482015481525050815260200190600101906102d3565b505050509050919050565b6000602052816000526040600020818154811061054257600080fd5b90600052602060002090600502016000915091505080600001805461056690610e3d565b80601f016020809104026020016040519081016040528092919081815260200182805461059290610e3d565b80156105df5780601f106105b4576101008083540402835291602001916105df565b820191906000526020600020905b8154815290600101906020018083116105c257829003601f168201915b5050505050908060010180546105f490610e3d565b80601f016020809104026020016040519081016040528092919081815260200182805461062090610e3d565b801561066d5780601f106106425761010080835404028352916020019161066d565b820191906000526020600020905b81548152906001019060200180831161065057829003601f168201915b50505050509080600201805461068290610e3d565b80601f01602080910402602001604051908101604052809291908181526020018280546106ae90610e3d565b80156106fb5780601f106106d0576101008083540402835291602001916106fb565b820191906000526020600020905b8154815290600101906020018083116106de57829003601f168201915b5050505050908060030160009054906101000a900473ffffffffffffffffffffffffffffffffffffffff16908060040154905085565b82805461073d90610e3d565b90600052602060002090601f01602090048101928261075f57600085556107a6565b82601f1061077857805160ff19168380011785556107a6565b828001600101855582156107a6579182015b828111156107a557825182559160200191906001019061078a565b5b5090506107b391906107b7565b5090565b5b808211156107d05760008160009055506001016107b8565b5090565b6000604051905090565b600080fd5b600080fd5b600080fd5b600080fd5b6000601f19601f8301169050919050565b7f4e487b7100000000000000000000000000000000000000000000000000000000600052604160045260246000fd5b61083b826107f2565b810181811067ffffffffffffffff8211171561085a57610859610803565b5b80604052505050565b600061086d6107d4565b90506108798282610832565b919050565b600067ffffffffffffffff82111561089957610898610803565b5b6108a2826107f2565b9050602081019050919050565b82818337600083830152505050565b60006108d16108cc8461087e565b610863565b9050828152602081018484840111156108ed576108ec6107ed565b5b6108f88482856108af565b509392505050565b600082601f830112610915576109146107e8565b5b81356109258482602086016108be565b91505092915050565b600080600060608486031215610947576109466107de565b5b600084013567ffffffffffffffff811115610965576109646107e3565b5b61097186828701610900565b935050602084013567ffffffffffffffff811115610992576109916107e3565b5b61099e86828701610900565b925050604084013567ffffffffffffffff8111156109bf576109be6107e3565b5b6109cb86828701610900565b9150509250925092565b600073ffffffffffffffffffffffffffffffffffffffff82169050919050565b6000610a00826109d5565b9050919050565b610a10816109f5565b8114610a1b57600080fd5b50565b600081359050610a2d81610a07565b92915050565b600060208284031215610a4957610a486107de565b5b6000610a5784828501610a1e565b91505092915050565b600081519050919050565b600082825260208201905092915050565b6000819050602082019050919050565b600081519050919050565b600082825260208201905092915050565b60005b83811015610ac6578082015181840152602081019050610aab565b83811115610ad5576000848401525b50505050565b6000610ae682610a8c565b610af08185610a97565b9350610b00818560208601610aa8565b610b09816107f2565b840191505092915050565b610b1d816109f5565b82525050565b6000819050919050565b610b3681610b23565b82525050565b600060a0830160008301518482036000860152610b598282610adb565b91505060208301518482036020860152610b738282610adb565b91505060408301518482036040860152610b8d8282610adb565b9150506060830151610ba26060860182610b14565b506080830151610bb56080860182610b2d565b508091505092915050565b6000610bcc8383610b3c565b905092915050565b6000602082019050919050565b6000610bec82610a60565b610bf68185610a6b565b935083602082028501610c0885610a7c565b8060005b85811015610c445784840389528151610c258582610bc0565b9450610c3083610bd4565b925060208a01995050600181019050610c0c565b50829750879550505050505092915050565b60006020820190508181036000830152610c708184610be1565b905092915050565b610c8181610b23565b8114610c8c57600080fd5b50565b600081359050610c9e81610c78565b92915050565b60008060408385031215610cbb57610cba6107de565b5b6000610cc985828601610a1e565b9250506020610cda85828601610c8f565b9150509250929050565b600082825260208201905092915050565b6000610d0082610a8c565b610d0a8185610ce4565b9350610d1a818560208601610aa8565b610d23816107f2565b840191505092915050565b610d37816109f5565b82525050565b610d4681610b23565b82525050565b600060a0820190508181036000830152610d668188610cf5565b90508181036020830152610d7a8187610cf5565b90508181036040830152610d8e8186610cf5565b9050610d9d6060830185610d2e565b610daa6080830184610d3d565b9695505050505050565b60006080820190508181036000830152610dce8187610cf5565b90508181036020830152610de28186610cf5565b90508181036040830152610df68185610cf5565b9050610e056060830184610d3d565b95945050505050565b7f4e487b7100000000000000000000000000000000000000000000000000000000600052602260045260246000fd5b60006002820490506001821680610e5557607f821691505b60208210811415610e6957610e68610e0e565b5b5091905056fea264697066735822122058a980d638dd73acae66eb693d58ead03659d76d5642a5caf2e196f30342ce6964736f6c634300080c0033",
					"opcodes": "PUSH1 0x80 PUSH1 0x40 MSTORE CALLVALUE DUP1 ISZERO PUSH2 0x10 JUMPI PUSH1 0x0 DUP1 REVERT JUMPDEST POP PUSH2 0xEA5 DUP1 PUSH2 0x20 PUSH1 0x0 CODECOPY PUSH1 0x0 RETURN INVALID PUSH1 0x80 PUSH1 0x40 MSTORE CALLVALUE DUP1 ISZERO PUSH2 0x10 JUMPI PUSH1 0x0 DUP1 REVERT JUMPDEST POP PUSH1 0x4 CALLDATASIZE LT PUSH2 0x41 JUMPI PUSH1 0x0 CALLDATALOAD PUSH1 0xE0 SHR DUP1 PUSH4 0x4875E9FD EQ PUSH2 0x46 JUMPI DUP1 PUSH4 0xCEC9C6CC EQ PUSH2 0x62 JUMPI DUP1 PUSH4 0xFFC6C29C EQ PUSH2 0x92 JUMPI JUMPDEST PUSH1 0x0 DUP1 REVERT JUMPDEST PUSH2 0x60 PUSH1 0x4 DUP1 CALLDATASIZE SUB DUP2 ADD SWAP1 PUSH2 0x5B SWAP2 SWAP1 PUSH2 0x92E JUMP JUMPDEST PUSH2 0xC6 JUMP JUMPDEST STOP JUMPDEST PUSH2 0x7C PUSH1 0x4 DUP1 CALLDATASIZE SUB DUP2 ADD SWAP1 PUSH2 0x77 SWAP2 SWAP1 PUSH2 0xA33 JUMP JUMPDEST PUSH2 0x273 JUMP JUMPDEST PUSH1 0x40 MLOAD PUSH2 0x89 SWAP2 SWAP1 PUSH2 0xC56 JUMP JUMPDEST PUSH1 0x40 MLOAD DUP1 SWAP2 SUB SWAP1 RETURN JUMPDEST PUSH2 0xAC PUSH1 0x4 DUP1 CALLDATASIZE SUB DUP2 ADD SWAP1 PUSH2 0xA7 SWAP2 SWAP1 PUSH2 0xCA4 JUMP JUMPDEST PUSH2 0x526 JUMP JUMPDEST PUSH1 0x40 MLOAD PUSH2 0xBD SWAP6 SWAP5 SWAP4 SWAP3 SWAP2 SWAP1 PUSH2 0xD4C JUMP JUMPDEST PUSH1 0x40 MLOAD DUP1 SWAP2 SUB SWAP1 RETURN JUMPDEST PUSH1 0x0 PUSH1 0x40 MLOAD DUP1 PUSH1 0xA0 ADD PUSH1 0x40 MSTORE DUP1 DUP6 DUP2 MSTORE PUSH1 0x20 ADD DUP5 DUP2 MSTORE PUSH1 0x20 ADD DUP4 DUP2 MSTORE PUSH1 0x20 ADD CALLER PUSH20 0xFFFFFFFFFFFFFFFFFFFFFFFFFFFFFFFFFFFFFFFF AND DUP2 MSTORE PUSH1 0x20 ADD TIMESTAMP DUP2 MSTORE POP SWAP1 POP PUSH1 0x0 DUP1 CALLER PUSH20 0xFFFFFFFFFFFFFFFFFFFFFFFFFFFFFFFFFFFFFFFF AND PUSH20 0xFFFFFFFFFFFFFFFFFFFFFFFFFFFFFFFFFFFFFFFF AND DUP2 MSTORE PUSH1 0x20 ADD SWAP1 DUP2 MSTORE PUSH1 0x20 ADD PUSH1 0x0 KECCAK256 DUP2 SWAP1 DUP1 PUSH1 0x1 DUP2 SLOAD ADD DUP1 DUP3 SSTORE DUP1 SWAP2 POP POP PUSH1 0x1 SWAP1 SUB SWAP1 PUSH1 0x0 MSTORE PUSH1 0x20 PUSH1 0x0 KECCAK256 SWAP1 PUSH1 0x5 MUL ADD PUSH1 0x0 SWAP1 SWAP2 SWAP1 SWAP2 SWAP1 SWAP2 POP PUSH1 0x0 DUP3 ADD MLOAD DUP2 PUSH1 0x0 ADD SWAP1 DUP1 MLOAD SWAP1 PUSH1 0x20 ADD SWAP1 PUSH2 0x18B SWAP3 SWAP2 SWAP1 PUSH2 0x731 JUMP JUMPDEST POP PUSH1 0x20 DUP3 ADD MLOAD DUP2 PUSH1 0x1 ADD SWAP1 DUP1 MLOAD SWAP1 PUSH1 0x20 ADD SWAP1 PUSH2 0x1A8 SWAP3 SWAP2 SWAP1 PUSH2 0x731 JUMP JUMPDEST POP PUSH1 0x40 DUP3 ADD MLOAD DUP2 PUSH1 0x2 ADD SWAP1 DUP1 MLOAD SWAP1 PUSH1 0x20 ADD SWAP1 PUSH2 0x1C5 SWAP3 SWAP2 SWAP1 PUSH2 0x731 JUMP JUMPDEST POP PUSH1 0x60 DUP3 ADD MLOAD DUP2 PUSH1 0x3 ADD PUSH1 0x0 PUSH2 0x100 EXP DUP2 SLOAD DUP2 PUSH20 0xFFFFFFFFFFFFFFFFFFFFFFFFFFFFFFFFFFFFFFFF MUL NOT AND SWAP1 DUP4 PUSH20 0xFFFFFFFFFFFFFFFFFFFFFFFFFFFFFFFFFFFFFFFF AND MUL OR SWAP1 SSTORE POP PUSH1 0x80 DUP3 ADD MLOAD DUP2 PUSH1 0x4 ADD SSTORE POP POP CALLER PUSH20 0xFFFFFFFFFFFFFFFFFFFFFFFFFFFFFFFFFFFFFFFF AND PUSH32 0xFA01791CF2EE2D721CB83FC66C41951350595AF03C57078485BD85985928A49C DUP6 DUP6 DUP6 TIMESTAMP PUSH1 0x40 MLOAD PUSH2 0x265 SWAP5 SWAP4 SWAP3 SWAP2 SWAP1 PUSH2 0xDB4 JUMP JUMPDEST PUSH1 0x40 MLOAD DUP1 SWAP2 SUB SWAP1 LOG2 POP POP POP POP JUMP JUMPDEST PUSH1 0x60 PUSH1 0x0 DUP1 DUP4 PUSH20 0xFFFFFFFFFFFFFFFFFFFFFFFFFFFFFFFFFFFFFFFF AND PUSH20 0xFFFFFFFFFFFFFFFFFFFFFFFFFFFFFFFFFFFFFFFF AND DUP2 MSTORE PUSH1 0x20 ADD SWAP1 DUP2 MSTORE PUSH1 0x20 ADD PUSH1 0x0 KECCAK256 DUP1 SLOAD DUP1 PUSH1 0x20 MUL PUSH1 0x20 ADD PUSH1 0x40 MLOAD SWAP1 DUP2 ADD PUSH1 0x40 MSTORE DUP1 SWAP3 SWAP2 SWAP1 DUP2 DUP2 MSTORE PUSH1 0x20 ADD PUSH1 0x0 SWAP1 JUMPDEST DUP3 DUP3 LT ISZERO PUSH2 0x51B JUMPI DUP4 DUP3 SWAP1 PUSH1 0x0 MSTORE PUSH1 0x20 PUSH1 0x0 KECCAK256 SWAP1 PUSH1 0x5 MUL ADD PUSH1 0x40 MLOAD DUP1 PUSH1 0xA0 ADD PUSH1 0x40 MSTORE SWAP1 DUP2 PUSH1 0x0 DUP3 ADD DUP1 SLOAD PUSH2 0x306 SWAP1 PUSH2 0xE3D JUMP JUMPDEST DUP1 PUSH1 0x1F ADD PUSH1 0x20 DUP1 SWAP2 DIV MUL PUSH1 0x20 ADD PUSH1 0x40 MLOAD SWAP1 DUP2 ADD PUSH1 0x40 MSTORE DUP1 SWAP3 SWAP2 SWAP1 DUP2 DUP2 MSTORE PUSH1 0x20 ADD DUP3 DUP1 SLOAD PUSH2 0x332 SWAP1 PUSH2 0xE3D JUMP JUMPDEST DUP1 ISZERO PUSH2 0x37F JUMPI DUP1 PUSH1 0x1F LT PUSH2 0x354 JUMPI PUSH2 0x100 DUP1 DUP4 SLOAD DIV MUL DUP4 MSTORE SWAP2 PUSH1 0x20 ADD SWAP2 PUSH2 0x37F JUMP JUMPDEST DUP3 ADD SWAP2 SWAP1 PUSH1 0x0 MSTORE PUSH1 0x20 PUSH1 0x0 KECCAK256 SWAP1 JUMPDEST DUP2 SLOAD DUP2 MSTORE SWAP1 PUSH1 0x1 ADD SWAP1 PUSH1 0x20 ADD DUP1 DUP4 GT PUSH2 0x362 JUMPI DUP3 SWAP1 SUB PUSH1 0x1F AND DUP3 ADD SWAP2 JUMPDEST POP POP POP POP POP DUP2 MSTORE PUSH1 0x20 ADD PUSH1 0x1 DUP3 ADD DUP1 SLOAD PUSH2 0x398 SWAP1 PUSH2 0xE3D JUMP JUMPDEST DUP1 PUSH1 0x1F ADD PUSH1 0x20 DUP1 SWAP2 DIV MUL PUSH1 0x20 ADD PUSH1 0x40 MLOAD SWAP1 DUP2 ADD PUSH1 0x40 MSTORE DUP1 SWAP3 SWAP2 SWAP1 DUP2 DUP2 MSTORE PUSH1 0x20 ADD DUP3 DUP1 SLOAD PUSH2 0x3C4 SWAP1 PUSH2 0xE3D JUMP JUMPDEST DUP1 ISZERO PUSH2 0x411 JUMPI DUP1 PUSH1 0x1F LT PUSH2 0x3E6 JUMPI PUSH2 0x100 DUP1 DUP4 SLOAD DIV MUL DUP4 MSTORE SWAP2 PUSH1 0x20 ADD SWAP2 PUSH2 0x411 JUMP JUMPDEST DUP3 ADD SWAP2 SWAP1 PUSH1 0x0 MSTORE PUSH1 0x20 PUSH1 0x0 KECCAK256 SWAP1 JUMPDEST DUP2 SLOAD DUP2 MSTORE SWAP1 PUSH1 0x1 ADD SWAP1 PUSH1 0x20 ADD DUP1 DUP4 GT PUSH2 0x3F4 JUMPI DUP3 SWAP1 SUB PUSH1 0x1F AND DUP3 ADD SWAP2 JUMPDEST POP POP POP POP POP DUP2 MSTORE PUSH1 0x20 ADD PUSH1 0x2 DUP3 ADD DUP1 SLOAD PUSH2 0x42A SWAP1 PUSH2 0xE3D JUMP JUMPDEST DUP1 PUSH1 0x1F ADD PUSH1 0x20 DUP1 SWAP2 DIV MUL PUSH1 0x20 ADD PUSH1 0x40 MLOAD SWAP1 DUP2 ADD PUSH1 0x40 MSTORE DUP1 SWAP3 SWAP2 SWAP1 DUP2 DUP2 MSTORE PUSH1 0x20 ADD DUP3 DUP1 SLOAD PUSH2 0x456 SWAP1 PUSH2 0xE3D JUMP JUMPDEST DUP1 ISZERO PUSH2 0x4A3 JUMPI DUP1 PUSH1 0x1F LT PUSH2 0x478 JUMPI PUSH2 0x100 DUP1 DUP4 SLOAD DIV MUL DUP4 MSTORE SWAP2 PUSH1 0x20 ADD SWAP2 PUSH2 0x4A3 JUMP JUMPDEST DUP3 ADD SWAP2 SWAP1 PUSH1 0x0 MSTORE PUSH1 0x20 PUSH1 0x0 KECCAK256 SWAP1 JUMPDEST DUP2 SLOAD DUP2 MSTORE SWAP1 PUSH1 0x1 ADD SWAP1 PUSH1 0x20 ADD DUP1 DUP4 GT PUSH2 0x486 JUMPI DUP3 SWAP1 SUB PUSH1 0x1F AND DUP3 ADD SWAP2 JUMPDEST POP POP POP POP POP DUP2 MSTORE PUSH1 0x20 ADD PUSH1 0x3 DUP3 ADD PUSH1 0x0 SWAP1 SLOAD SWAP1 PUSH2 0x100 EXP SWAP1 DIV PUSH20 0xFFFFFFFFFFFFFFFFFFFFFFFFFFFFFFFFFFFFFFFF AND PUSH20 0xFFFFFFFFFFFFFFFFFFFFFFFFFFFFFFFFFFFFFFFF AND PUSH20 0xFFFFFFFFFFFFFFFFFFFFFFFFFFFFFFFFFFFFFFFF AND DUP2 MSTORE PUSH1 0x20 ADD PUSH1 0x4 DUP3 ADD SLOAD DUP2 MSTORE POP POP DUP2 MSTORE PUSH1 0x20 ADD SWAP1 PUSH1 0x1 ADD SWAP1 PUSH2 0x2D3 JUMP JUMPDEST POP POP POP POP SWAP1 POP SWAP2 SWAP1 POP JUMP JUMPDEST PUSH1 0x0 PUSH1 0x20 MSTORE DUP2 PUSH1 0x0 MSTORE PUSH1 0x40 PUSH1 0x0 KECCAK256 DUP2 DUP2 SLOAD DUP2 LT PUSH2 0x542 JUMPI PUSH1 0x0 DUP1 REVERT JUMPDEST SWAP1 PUSH1 0x0 MSTORE PUSH1 0x20 PUSH1 0x0 KECCAK256 SWAP1 PUSH1 0x5 MUL ADD PUSH1 0x0 SWAP2 POP SWAP2 POP POP DUP1 PUSH1 0x0 ADD DUP1 SLOAD PUSH2 0x566 SWAP1 PUSH2 0xE3D JUMP JUMPDEST DUP1 PUSH1 0x1F ADD PUSH1 0x20 DUP1 SWAP2 DIV MUL PUSH1 0x20 ADD PUSH1 0x40 MLOAD SWAP1 DUP2 ADD PUSH1 0x40 MSTORE DUP1 SWAP3 SWAP2 SWAP1 DUP2 DUP2 MSTORE PUSH1 0x20 ADD DUP3 DUP1 SLOAD PUSH2 0x592 SWAP1 PUSH2 0xE3D JUMP JUMPDEST DUP1 ISZERO PUSH2 0x5DF JUMPI DUP1 PUSH1 0x1F LT PUSH2 0x5B4 JUMPI PUSH2 0x100 DUP1 DUP4 SLOAD DIV MUL DUP4 MSTORE SWAP2 PUSH1 0x20 ADD SWAP2 PUSH2 0x5DF JUMP JUMPDEST DUP3 ADD SWAP2 SWAP1 PUSH1 0x0 MSTORE PUSH1 0x20 PUSH1 0x0 KECCAK256 SWAP1 JUMPDEST DUP2 SLOAD DUP2 MSTORE SWAP1 PUSH1 0x1 ADD SWAP1 PUSH1 0x20 ADD DUP1 DUP4 GT PUSH2 0x5C2 JUMPI DUP3 SWAP1 SUB PUSH1 0x1F AND DUP3 ADD SWAP2 JUMPDEST POP POP POP POP POP SWAP1 DUP1 PUSH1 0x1 ADD DUP1 SLOAD PUSH2 0x5F4 SWAP1 PUSH2 0xE3D JUMP JUMPDEST DUP1 PUSH1 0x1F ADD PUSH1 0x20 DUP1 SWAP2 DIV MUL PUSH1 0x20 ADD PUSH1 0x40 MLOAD SWAP1 DUP2 ADD PUSH1 0x40 MSTORE DUP1 SWAP3 SWAP2 SWAP1 DUP2 DUP2 MSTORE PUSH1 0x20 ADD DUP3 DUP1 SLOAD PUSH2 0x620 SWAP1 PUSH2 0xE3D JUMP JUMPDEST DUP1 ISZERO PUSH2 0x66D JUMPI DUP1 PUSH1 0x1F LT PUSH2 0x642 JUMPI PUSH2 0x100 DUP1 DUP4 SLOAD DIV MUL DUP4 MSTORE SWAP2 PUSH1 0x20 ADD SWAP2 PUSH2 0x66D JUMP JUMPDEST DUP3 ADD SWAP2 SWAP1 PUSH1 0x0 MSTORE PUSH1 0x20 PUSH1 0x0 KECCAK256 SWAP1 JUMPDEST DUP2 SLOAD DUP2 MSTORE SWAP1 PUSH1 0x1 ADD SWAP1 PUSH1 0x20 ADD DUP1 DUP4 GT PUSH2 0x650 JUMPI DUP3 SWAP1 SUB PUSH1 0x1F AND DUP3 ADD SWAP2 JUMPDEST POP POP POP POP POP SWAP1 DUP1 PUSH1 0x2 ADD DUP1 SLOAD PUSH2 0x682 SWAP1 PUSH2 0xE3D JUMP JUMPDEST DUP1 PUSH1 0x1F ADD PUSH1 0x20 DUP1 SWAP2 DIV MUL PUSH1 0x20 ADD PUSH1 0x40 MLOAD SWAP1 DUP2 ADD PUSH1 0x40 MSTORE DUP1 SWAP3 SWAP2 SWAP1 DUP2 DUP2 MSTORE PUSH1 0x20 ADD DUP3 DUP1 SLOAD PUSH2 0x6AE SWAP1 PUSH2 0xE3D JUMP JUMPDEST DUP1 ISZERO PUSH2 0x6FB JUMPI DUP1 PUSH1 0x1F LT PUSH2 0x6D0 JUMPI PUSH2 0x100 DUP1 DUP4 SLOAD DIV MUL DUP4 MSTORE SWAP2 PUSH1 0x20 ADD SWAP2 PUSH2 0x6FB JUMP JUMPDEST DUP3 ADD SWAP2 SWAP1 PUSH1 0x0 MSTORE PUSH1 0x20 PUSH1 0x0 KECCAK256 SWAP1 JUMPDEST DUP2 SLOAD DUP2 MSTORE SWAP1 PUSH1 0x1 ADD SWAP1 PUSH1 0x20 ADD DUP1 DUP4 GT PUSH2 0x6DE JUMPI DUP3 SWAP1 SUB PUSH1 0x1F AND DUP3 ADD SWAP2 JUMPDEST POP POP POP POP POP SWAP1 DUP1 PUSH1 0x3 ADD PUSH1 0x0 SWAP1 SLOAD SWAP1 PUSH2 0x100 EXP SWAP1 DIV PUSH20 0xFFFFFFFFFFFFFFFFFFFFFFFFFFFFFFFFFFFFFFFF AND SWAP1 DUP1 PUSH1 0x4 ADD SLOAD SWAP1 POP DUP6 JUMP JUMPDEST DUP3 DUP1 SLOAD PUSH2 0x73D SWAP1 PUSH2 0xE3D JUMP JUMPDEST SWAP1 PUSH1 0x0 MSTORE PUSH1 0x20 PUSH1 0x0 KECCAK256 SWAP1 PUSH1 0x1F ADD PUSH1 0x20 SWAP1 DIV DUP2 ADD SWAP3 DUP3 PUSH2 0x75F JUMPI PUSH1 0x0 DUP6 SSTORE PUSH2 0x7A6 JUMP JUMPDEST DUP3 PUSH1 0x1F LT PUSH2 0x778 JUMPI DUP1 MLOAD PUSH1 0xFF NOT AND DUP4 DUP1 ADD OR DUP6 SSTORE PUSH2 0x7A6 JUMP JUMPDEST DUP3 DUP1 ADD PUSH1 0x1 ADD DUP6 SSTORE DUP3 ISZERO PUSH2 0x7A6 JUMPI SWAP2 DUP3 ADD JUMPDEST DUP3 DUP2 GT ISZERO PUSH2 0x7A5 JUMPI DUP3 MLOAD DUP3 SSTORE SWAP2 PUSH1 0x20 ADD SWAP2 SWAP1 PUSH1 0x1 ADD SWAP1 PUSH2 0x78A JUMP JUMPDEST JUMPDEST POP SWAP1 POP PUSH2 0x7B3 SWAP2 SWAP1 PUSH2 0x7B7 JUMP JUMPDEST POP SWAP1 JUMP JUMPDEST JUMPDEST DUP1 DUP3 GT ISZERO PUSH2 0x7D0 JUMPI PUSH1 0x0 DUP2 PUSH1 0x0 SWAP1 SSTORE POP PUSH1 0x1 ADD PUSH2 0x7B8 JUMP JUMPDEST POP SWAP1 JUMP JUMPDEST PUSH1 0x0 PUSH1 0x40 MLOAD SWAP1 POP SWAP1 JUMP JUMPDEST PUSH1 0x0 DUP1 REVERT JUMPDEST PUSH1 0x0 DUP1 REVERT JUMPDEST PUSH1 0x0 DUP1 REVERT JUMPDEST PUSH1 0x0 DUP1 REVERT JUMPDEST PUSH1 0x0 PUSH1 0x1F NOT PUSH1 0x1F DUP4 ADD AND SWAP1 POP SWAP2 SWAP1 POP JUMP JUMPDEST PUSH32 0x4E487B7100000000000000000000000000000000000000000000000000000000 PUSH1 0x0 MSTORE PUSH1 0x41 PUSH1 0x4 MSTORE PUSH1 0x24 PUSH1 0x0 REVERT JUMPDEST PUSH2 0x83B DUP3 PUSH2 0x7F2 JUMP JUMPDEST DUP2 ADD DUP2 DUP2 LT PUSH8 0xFFFFFFFFFFFFFFFF DUP3 GT OR ISZERO PUSH2 0x85A JUMPI PUSH2 0x859 PUSH2 0x803 JUMP JUMPDEST JUMPDEST DUP1 PUSH1 0x40 MSTORE POP POP POP JUMP JUMPDEST PUSH1 0x0 PUSH2 0x86D PUSH2 0x7D4 JUMP JUMPDEST SWAP1 POP PUSH2 0x879 DUP3 DUP3 PUSH2 0x832 JUMP JUMPDEST SWAP2 SWAP1 POP JUMP JUMPDEST PUSH1 0x0 PUSH8 0xFFFFFFFFFFFFFFFF DUP3 GT ISZERO PUSH2 0x899 JUMPI PUSH2 0x898 PUSH2 0x803 JUMP JUMPDEST JUMPDEST PUSH2 0x8A2 DUP3 PUSH2 0x7F2 JUMP JUMPDEST SWAP1 POP PUSH1 0x20 DUP2 ADD SWAP1 POP SWAP2 SWAP1 POP JUMP JUMPDEST DUP3 DUP2 DUP4 CALLDATACOPY PUSH1 0x0 DUP4 DUP4 ADD MSTORE POP POP POP JUMP JUMPDEST PUSH1 0x0 PUSH2 0x8D1 PUSH2 0x8CC DUP5 PUSH2 0x87E JUMP JUMPDEST PUSH2 0x863 JUMP JUMPDEST SWAP1 POP DUP3 DUP2 MSTORE PUSH1 0x20 DUP2 ADD DUP5 DUP5 DUP5 ADD GT ISZERO PUSH2 0x8ED JUMPI PUSH2 0x8EC PUSH2 0x7ED JUMP JUMPDEST JUMPDEST PUSH2 0x8F8 DUP5 DUP3 DUP6 PUSH2 0x8AF JUMP JUMPDEST POP SWAP4 SWAP3 POP POP POP JUMP JUMPDEST PUSH1 0x0 DUP3 PUSH1 0x1F DUP4 ADD SLT PUSH2 0x915 JUMPI PUSH2 0x914 PUSH2 0x7E8 JUMP JUMPDEST JUMPDEST DUP2 CALLDATALOAD PUSH2 0x925 DUP5 DUP3 PUSH1 0x20 DUP7 ADD PUSH2 0x8BE JUMP JUMPDEST SWAP2 POP POP SWAP3 SWAP2 POP POP JUMP JUMPDEST PUSH1 0x0 DUP1 PUSH1 0x0 PUSH1 0x60 DUP5 DUP7 SUB SLT ISZERO PUSH2 0x947 JUMPI PUSH2 0x946 PUSH2 0x7DE JUMP JUMPDEST JUMPDEST PUSH1 0x0 DUP5 ADD CALLDATALOAD PUSH8 0xFFFFFFFFFFFFFFFF DUP2 GT ISZERO PUSH2 0x965 JUMPI PUSH2 0x964 PUSH2 0x7E3 JUMP JUMPDEST JUMPDEST PUSH2 0x971 DUP7 DUP3 DUP8 ADD PUSH2 0x900 JUMP JUMPDEST SWAP4 POP POP PUSH1 0x20 DUP5 ADD CALLDATALOAD PUSH8 0xFFFFFFFFFFFFFFFF DUP2 GT ISZERO PUSH2 0x992 JUMPI PUSH2 0x991 PUSH2 0x7E3 JUMP JUMPDEST JUMPDEST PUSH2 0x99E DUP7 DUP3 DUP8 ADD PUSH2 0x900 JUMP JUMPDEST SWAP3 POP POP PUSH1 0x40 DUP5 ADD CALLDATALOAD PUSH8 0xFFFFFFFFFFFFFFFF DUP2 GT ISZERO PUSH2 0x9BF JUMPI PUSH2 0x9BE PUSH2 0x7E3 JUMP JUMPDEST JUMPDEST PUSH2 0x9CB DUP7 DUP3 DUP8 ADD PUSH2 0x900 JUMP JUMPDEST SWAP2 POP POP SWAP3 POP SWAP3 POP SWAP3 JUMP JUMPDEST PUSH1 0x0 PUSH20 0xFFFFFFFFFFFFFFFFFFFFFFFFFFFFFFFFFFFFFFFF DUP3 AND SWAP1 POP SWAP2 SWAP1 POP JUMP JUMPDEST PUSH1 0x0 PUSH2 0xA00 DUP3 PUSH2 0x9D5 JUMP JUMPDEST SWAP1 POP SWAP2 SWAP1 POP JUMP JUMPDEST PUSH2 0xA10 DUP2 PUSH2 0x9F5 JUMP JUMPDEST DUP2 EQ PUSH2 0xA1B JUMPI PUSH1 0x0 DUP1 REVERT JUMPDEST POP JUMP JUMPDEST PUSH1 0x0 DUP2 CALLDATALOAD SWAP1 POP PUSH2 0xA2D DUP2 PUSH2 0xA07 JUMP JUMPDEST SWAP3 SWAP2 POP POP JUMP JUMPDEST PUSH1 0x0 PUSH1 0x20 DUP3 DUP5 SUB SLT ISZERO PUSH2 0xA49 JUMPI PUSH2 0xA48 PUSH2 0x7DE JUMP JUMPDEST JUMPDEST PUSH1 0x0 PUSH2 0xA57 DUP5 DUP3 DUP6 ADD PUSH2 0xA1E JUMP JUMPDEST SWAP2 POP POP SWAP3 SWAP2 POP POP JUMP JUMPDEST PUSH1 0x0 DUP2 MLOAD SWAP1 POP SWAP2 SWAP1 POP JUMP JUMPDEST PUSH1 0x0 DUP3 DUP3 MSTORE PUSH1 0x20 DUP3 ADD SWAP1 POP SWAP3 SWAP2 POP POP JUMP JUMPDEST PUSH1 0x0 DUP2 SWAP1 POP PUSH1 0x20 DUP3 ADD SWAP1 POP SWAP2 SWAP1 POP JUMP JUMPDEST PUSH1 0x0 DUP2 MLOAD SWAP1 POP SWAP2 SWAP1 POP JUMP JUMPDEST PUSH1 0x0 DUP3 DUP3 MSTORE PUSH1 0x20 DUP3 ADD SWAP1 POP SWAP3 SWAP2 POP POP JUMP JUMPDEST PUSH1 0x0 JUMPDEST DUP4 DUP2 LT ISZERO PUSH2 0xAC6 JUMPI DUP1 DUP3 ADD MLOAD DUP2 DUP5 ADD MSTORE PUSH1 0x20 DUP2 ADD SWAP1 POP PUSH2 0xAAB JUMP JUMPDEST DUP4 DUP2 GT ISZERO PUSH2 0xAD5 JUMPI PUSH1 0x0 DUP5 DUP5 ADD MSTORE JUMPDEST POP POP POP POP JUMP JUMPDEST PUSH1 0x0 PUSH2 0xAE6 DUP3 PUSH2 0xA8C JUMP JUMPDEST PUSH2 0xAF0 DUP2 DUP6 PUSH2 0xA97 JUMP JUMPDEST SWAP4 POP PUSH2 0xB00 DUP2 DUP6 PUSH1 0x20 DUP7 ADD PUSH2 0xAA8 JUMP JUMPDEST PUSH2 0xB09 DUP2 PUSH2 0x7F2 JUMP JUMPDEST DUP5 ADD SWAP2 POP POP SWAP3 SWAP2 POP POP JUMP JUMPDEST PUSH2 0xB1D DUP2 PUSH2 0x9F5 JUMP JUMPDEST DUP3 MSTORE POP POP JUMP JUMPDEST PUSH1 0x0 DUP2 SWAP1 POP SWAP2 SWAP1 POP JUMP JUMPDEST PUSH2 0xB36 DUP2 PUSH2 0xB23 JUMP JUMPDEST DUP3 MSTORE POP POP JUMP JUMPDEST PUSH1 0x0 PUSH1 0xA0 DUP4 ADD PUSH1 0x0 DUP4 ADD MLOAD DUP5 DUP3 SUB PUSH1 0x0 DUP7 ADD MSTORE PUSH2 0xB59 DUP3 DUP3 PUSH2 0xADB JUMP JUMPDEST SWAP2 POP POP PUSH1 0x20 DUP4 ADD MLOAD DUP5 DUP3 SUB PUSH1 0x20 DUP7 ADD MSTORE PUSH2 0xB73 DUP3 DUP3 PUSH2 0xADB JUMP JUMPDEST SWAP2 POP POP PUSH1 0x40 DUP4 ADD MLOAD DUP5 DUP3 SUB PUSH1 0x40 DUP7 ADD MSTORE PUSH2 0xB8D DUP3 DUP3 PUSH2 0xADB JUMP JUMPDEST SWAP2 POP POP PUSH1 0x60 DUP4 ADD MLOAD PUSH2 0xBA2 PUSH1 0x60 DUP7 ADD DUP3 PUSH2 0xB14 JUMP JUMPDEST POP PUSH1 0x80 DUP4 ADD MLOAD PUSH2 0xBB5 PUSH1 0x80 DUP7 ADD DUP3 PUSH2 0xB2D JUMP JUMPDEST POP DUP1 SWAP2 POP POP SWAP3 SWAP2 POP POP JUMP JUMPDEST PUSH1 0x0 PUSH2 0xBCC DUP4 DUP4 PUSH2 0xB3C JUMP JUMPDEST SWAP1 POP SWAP3 SWAP2 POP POP JUMP JUMPDEST PUSH1 0x0 PUSH1 0x20 DUP3 ADD SWAP1 POP SWAP2 SWAP1 POP JUMP JUMPDEST PUSH1 0x0 PUSH2 0xBEC DUP3 PUSH2 0xA60 JUMP JUMPDEST PUSH2 0xBF6 DUP2 DUP6 PUSH2 0xA6B JUMP JUMPDEST SWAP4 POP DUP4 PUSH1 0x20 DUP3 MUL DUP6 ADD PUSH2 0xC08 DUP6 PUSH2 0xA7C JUMP JUMPDEST DUP1 PUSH1 0x0 JUMPDEST DUP6 DUP2 LT ISZERO PUSH2 0xC44 JUMPI DUP5 DUP5 SUB DUP10 MSTORE DUP2 MLOAD PUSH2 0xC25 DUP6 DUP3 PUSH2 0xBC0 JUMP JUMPDEST SWAP5 POP PUSH2 0xC30 DUP4 PUSH2 0xBD4 JUMP JUMPDEST SWAP3 POP PUSH1 0x20 DUP11 ADD SWAP10 POP POP PUSH1 0x1 DUP2 ADD SWAP1 POP PUSH2 0xC0C JUMP JUMPDEST POP DUP3 SWAP8 POP DUP8 SWAP6 POP POP POP POP POP POP SWAP3 SWAP2 POP POP JUMP JUMPDEST PUSH1 0x0 PUSH1 0x20 DUP3 ADD SWAP1 POP DUP2 DUP2 SUB PUSH1 0x0 DUP4 ADD MSTORE PUSH2 0xC70 DUP2 DUP5 PUSH2 0xBE1 JUMP JUMPDEST SWAP1 POP SWAP3 SWAP2 POP POP JUMP JUMPDEST PUSH2 0xC81 DUP2 PUSH2 0xB23 JUMP JUMPDEST DUP2 EQ PUSH2 0xC8C JUMPI PUSH1 0x0 DUP1 REVERT JUMPDEST POP JUMP JUMPDEST PUSH1 0x0 DUP2 CALLDATALOAD SWAP1 POP PUSH2 0xC9E DUP2 PUSH2 0xC78 JUMP JUMPDEST SWAP3 SWAP2 POP POP JUMP JUMPDEST PUSH1 0x0 DUP1 PUSH1 0x40 DUP4 DUP6 SUB SLT ISZERO PUSH2 0xCBB JUMPI PUSH2 0xCBA PUSH2 0x7DE JUMP JUMPDEST JUMPDEST PUSH1 0x0 PUSH2 0xCC9 DUP6 DUP3 DUP7 ADD PUSH2 0xA1E JUMP JUMPDEST SWAP3 POP POP PUSH1 0x20 PUSH2 0xCDA DUP6 DUP3 DUP7 ADD PUSH2 0xC8F JUMP JUMPDEST SWAP2 POP POP SWAP3 POP SWAP3 SWAP1 POP JUMP JUMPDEST PUSH1 0x0 DUP3 DUP3 MSTORE PUSH1 0x20 DUP3 ADD SWAP1 POP SWAP3 SWAP2 POP POP JUMP JUMPDEST PUSH1 0x0 PUSH2 0xD00 DUP3 PUSH2 0xA8C JUMP JUMPDEST PUSH2 0xD0A DUP2 DUP6 PUSH2 0xCE4 JUMP JUMPDEST SWAP4 POP PUSH2 0xD1A DUP2 DUP6 PUSH1 0x20 DUP7 ADD PUSH2 0xAA8 JUMP JUMPDEST PUSH2 0xD23 DUP2 PUSH2 0x7F2 JUMP JUMPDEST DUP5 ADD SWAP2 POP POP SWAP3 SWAP2 POP POP JUMP JUMPDEST PUSH2 0xD37 DUP2 PUSH2 0x9F5 JUMP JUMPDEST DUP3 MSTORE POP POP JUMP JUMPDEST PUSH2 0xD46 DUP2 PUSH2 0xB23 JUMP JUMPDEST DUP3 MSTORE POP POP JUMP JUMPDEST PUSH1 0x0 PUSH1 0xA0 DUP3 ADD SWAP1 POP DUP2 DUP2 SUB PUSH1 0x0 DUP4 ADD MSTORE PUSH2 0xD66 DUP2 DUP9 PUSH2 0xCF5 JUMP JUMPDEST SWAP1 POP DUP2 DUP2 SUB PUSH1 0x20 DUP4 ADD MSTORE PUSH2 0xD7A DUP2 DUP8 PUSH2 0xCF5 JUMP JUMPDEST SWAP1 POP DUP2 DUP2 SUB PUSH1 0x40 DUP4 ADD MSTORE PUSH2 0xD8E DUP2 DUP7 PUSH2 0xCF5 JUMP JUMPDEST SWAP1 POP PUSH2 0xD9D PUSH1 0x60 DUP4 ADD DUP6 PUSH2 0xD2E JUMP JUMPDEST PUSH2 0xDAA PUSH1 0x80 DUP4 ADD DUP5 PUSH2 0xD3D JUMP JUMPDEST SWAP7 SWAP6 POP POP POP POP POP POP JUMP JUMPDEST PUSH1 0x0 PUSH1 0x80 DUP3 ADD SWAP1 POP DUP2 DUP2 SUB PUSH1 0x0 DUP4 ADD MSTORE PUSH2 0xDCE DUP2 DUP8 PUSH2 0xCF5 JUMP JUMPDEST SWAP1 POP DUP2 DUP2 SUB PUSH1 0x20 DUP4 ADD MSTORE PUSH2 0xDE2 DUP2 DUP7 PUSH2 0xCF5 JUMP JUMPDEST SWAP1 POP DUP2 DUP2 SUB PUSH1 0x40 DUP4 ADD MSTORE PUSH2 0xDF6 DUP2 DUP6 PUSH2 0xCF5 JUMP JUMPDEST SWAP1 POP PUSH2 0xE05 PUSH1 0x60 DUP4 ADD DUP5 PUSH2 0xD3D JUMP JUMPDEST SWAP6 SWAP5 POP POP POP POP POP JUMP JUMPDEST PUSH32 0x4E487B7100000000000000000000000000000000000000000000000000000000 PUSH1 0x0 MSTORE PUSH1 0x22 PUSH1 0x4 MSTORE PUSH1 0x24 PUSH1 0x0 REVERT JUMPDEST PUSH1 0x0 PUSH1 0x2 DUP3 DIV SWAP1 POP PUSH1 0x1 DUP3 AND DUP1 PUSH2 0xE55 JUMPI PUSH1 0x7F DUP3 AND SWAP2 POP JUMPDEST PUSH1 0x20 DUP3 LT DUP2 EQ ISZERO PUSH2 0xE69 JUMPI PUSH2 0xE68 PUSH2 0xE0E JUMP JUMPDEST JUMPDEST POP SWAP2 SWAP1 POP JUMP INVALID LOG2 PUSH5 0x6970667358 0x22 SLT KECCAK256 PC 0xA9 DUP1 0xD6 CODESIZE 0xDD PUSH20 0xACAE66EB693D58EAD03659D76D5642A5CAF2E196 RETURN SUB TIMESTAMP 0xCE PUSH10 0x64736F6C634300080C00 CALLER "
				},
				"gasEstimates": {
					"creation": {
						"codeDepositCost": "749800",
						"executionCost": "786",
						"totalCost": "750586"
					},
					"external": {
						"getVideosByUploader(address)": "infinite",
						"uploadVideo(string,string,string)": "infinite",
						"videos(address,uint256)": "infinite"
					}
				},
				"methodIdentifiers": {
					"getVideosByUploader(address)": "cec9c6cc",
					"uploadVideo(string,string,string)": "4875e9fd",
					"videos(address,uint256)": "ffc6c29c"
				}
			},
			"storageLayout": {
				"storage": [
					{
						"astId": 18,
						"contract": "VideoContract.sol:VideoBlockchainTracker",
						"label": "videos",
						"offset": 0,
						"slot": "0",
						"type": "t_mapping(t_address,t_array(t_struct(Video)12_storage)dyn_storage)"
					}
				],
				"types": {
					"t_address": {
						"encoding": "inplace",
						"label": "address",
						"numberOfBytes": "20"
					},
					"t_array(t_struct(Video)12_storage)dyn_storage": {
						"base": "t_struct(Video)12_storage",
						"encoding": "dynamic_array",
						"label": "struct VideoBlockchainTracker.Video[]",
						"numberOfBytes": "32"
					},
					"t_mapping(t_address,t_array(t_struct(Video)12_storage)dyn_storage)": {
						"encoding": "mapping",
						"key": "t_address",
						"label": "mapping(address => struct VideoBlockchainTracker.Video[])",
						"numberOfBytes": "32",
						"value": "t_array(t_struct(Video)12_storage)dyn_storage"
					},
					"t_string_storage": {
						"encoding": "bytes",
						"label": "string",
						"numberOfBytes": "32"
					},
					"t_struct(Video)12_storage": {
						"encoding": "inplace",
						"label": "struct VideoBlockchainTracker.Video",
						"members": [
							{
								"astId": 3,
								"contract": "VideoContract.sol:VideoBlockchainTracker",
								"label": "videoHash",
								"offset": 0,
								"slot": "0",
								"type": "t_string_storage"
							},
							{
								"astId": 5,
								"contract": "VideoContract.sol:VideoBlockchainTracker",
								"label": "caption",
								"offset": 0,
								"slot": "1",
								"type": "t_string_storage"
							},
							{
								"astId": 7,
								"contract": "VideoContract.sol:VideoBlockchainTracker",
								"label": "tag",
								"offset": 0,
								"slot": "2",
								"type": "t_string_storage"
							},
							{
								"astId": 9,
								"contract": "VideoContract.sol:VideoBlockchainTracker",
								"label": "uploader",
								"offset": 0,
								"slot": "3",
								"type": "t_address"
							},
							{
								"astId": 11,
								"contract": "VideoContract.sol:VideoBlockchainTracker",
								"label": "timestamp",
								"offset": 0,
								"slot": "4",
								"type": "t_uint256"
							}
						],
						"numberOfBytes": "160"
					},
					"t_uint256": {
						"encoding": "inplace",
						"label": "uint256",
						"numberOfBytes": "32"
					}
				}
			},
			"userdoc": {
				"kind": "user",
				"methods": {},
				"version": 1
			}
		}
	}
}